{"contracts/VaultAdapter.sol":{"VaultAdapter":{"abi":[{"inputs":[{"internalType":"address","name":"_token","type":"address"},{"internalType":"string","name":"_name","type":"string"}],"stateMutability":"nonpayable","type":"constructor"},{"inputs":[{"internalType":"address","name":"owner","type":"address"}],"name":"OwnableInvalidOwner","type":"error"},{"inputs":[{"internalType":"address","name":"account","type":"address"}],"name":"OwnableUnauthorizedAccount","type":"error"},{"anonymous":false,"inputs":[{"indexed":true,"internalType":"address","name":"user","type":"address"},{"indexed":false,"internalType":"uint256","name":"amount","type":"uint256"},{"indexed":false,"internalType":"uint256","name":"shares","type":"uint256"}],"name":"Deposited","type":"event"},{"anonymous":false,"inputs":[{"indexed":true,"internalType":"address","name":"previousOwner","type":"address"},{"indexed":true,"internalType":"address","name":"newOwner","type":"address"}],"name":"OwnershipTransferred","type":"event"},{"anonymous":false,"inputs":[{"indexed":true,"internalType":"address","name":"user","type":"address"},{"indexed":false,"internalType":"uint256","name":"amount","type":"uint256"},{"indexed":false,"internalType":"uint256","name":"shares","type":"uint256"}],"name":"Withdrawn","type":"event"},{"inputs":[{"internalType":"address","name":"user","type":"address"}],"name":"balanceOf","outputs":[{"internalType":"uint256","name":"","type":"uint256"}],"stateMutability":"view","type":"function"},{"inputs":[{"internalType":"address","name":"","type":"address"}],"name":"balances","outputs":[{"internalType":"uint256","name":"","type":"uint256"}],"stateMutability":"view","type":"function"},{"inputs":[{"internalType":"address","name":"user","type":"address"},{"internalType":"uint256","name":"amount","type":"uint256"}],"name":"deposit","outputs":[{"internalType":"uint256","name":"shares","type":"uint256"}],"stateMutability":"nonpayable","type":"function"},{"inputs":[],"name":"emergencyWithdraw","outputs":[],"stateMutability":"nonpayable","type":"function"},{"inputs":[],"name":"name","outputs":[{"internalType":"string","name":"","type":"string"}],"stateMutability":"view","type":"function"},{"inputs":[],"name":"owner","outputs":[{"internalType":"address","name":"","type":"address"}],"stateMutability":"view","type":"function"},{"inputs":[],"name":"renounceOwnership","outputs":[],"stateMutability":"nonpayable","type":"function"},{"inputs":[],"name":"token","outputs":[{"internalType":"contract IERC20","name":"","type":"address"}],"stateMutability":"view","type":"function"},{"inputs":[],"name":"totalDeposits","outputs":[{"internalType":"uint256","name":"","type":"uint256"}],"stateMutability":"view","type":"function"},{"inputs":[{"internalType":"address","name":"newOwner","type":"address"}],"name":"transferOwnership","outputs":[],"stateMutability":"nonpayable","type":"function"},{"inputs":[{"internalType":"uint256","name":"shares","type":"uint256"}],"name":"withdraw","outputs":[{"internalType":"uint256","name":"amount","type":"uint256"}],"stateMutability":"nonpayable","type":"function"}],"evm":{"bytecode":{"linkReferences":{},"object":"6080604052346102ac57610b3480380380610019816102b1565b9283398101906040818303126102ac5780516001600160a01b03811691908290036102ac576020810151906001600160401b0382116102ac570182601f820112156102ac578051906001600160401b03821161026b57610082601f8301601f19166020016102b1565b93828552602083830101116102ac5760005b82811061029757505060206000918401015233156102815760008054336001600160a01b0319821681178355916001600160a01b03909116907f8be0079c531659141344cd1fd0a4f28419497f9722a3daafe3b4186f6b6457e09080a3600180546001600160a01b03191691909117905580516001600160401b03811161026b57600254600181811c91168015610261575b602082101461024b57601f81116101e6575b50602091601f821160011461018257918192600092610177575b50508160011b916000199060031b1c1916176002555b60405161085d90816102d78239f35b015190503880610152565b601f198216926002600052806000209160005b8581106101ce575083600195106101b5575b505050811b01600255610168565b015160001960f88460031b161c191690553880806101a7565b91926020600181928685015181550194019201610195565b60026000527f405787fa12a823e0f2b7631cc41b3ba8828b3321ca811111fa75cd3aa3bb5ace601f830160051c81019160208410610241575b601f0160051c01905b8181106102355750610138565b60008155600101610228565b909150819061021f565b634e487b7160e01b600052602260045260246000fd5b90607f1690610126565b634e487b7160e01b600052604160045260246000fd5b631e4fbdf760e01b600052600060045260246000fd5b80602080928401015182828801015201610094565b600080fd5b6040519190601f01601f191682016001600160401b0381118382101761026b5760405256fe608080604052600436101561001357600080fd5b60003560e01c90816306fdde03146105eb5750806327e235e3146103095780632e1a7d4d1461047757806347e7ef241461034357806370a0823114610309578063715018a6146102b05780637d882097146102925780638da5cb5b14610269578063db2e21bc1461014f578063f2fde38b146100c65763fc0c546a1461009857600080fd5b346100c15760003660031901126100c1576001546040516001600160a01b039091168152602090f35b600080fd5b346100c15760203660031901126100c1576100df610762565b6100e76107fe565b6001600160a01b0316801561013957600080546001600160a01b03198116831782556001600160a01b0316907f8be0079c531659141344cd1fd0a4f28419497f9722a3daafe3b4186f6b6457e09080a3005b631e4fbdf760e01b600052600060045260246000fd5b346100c15760003660031901126100c1576101686107fe565b6001546040516370a0823160e01b81523060048201526001600160a01b0390911690602081602481855afa90811561022957600091610235575b506000805460405163a9059cbb60e01b81526001600160a01b03909116600482015260248101929092529091602091839190829081604481015b03925af18015610229576101f8916000916101fa575b506107b3565b005b61021c915060203d602011610222575b610214818361072a565b81019061079b565b826101f2565b503d61020a565b6040513d6000823e3d90fd5b90506020813d602011610261575b816102506020938361072a565b810103126100c157516101dc6101a2565b3d9150610243565b346100c15760003660031901126100c1576000546040516001600160a01b039091168152602090f35b346100c15760003660031901126100c1576020600454604051908152f35b346100c15760003660031901126100c1576102c96107fe565b600080546001600160a01b0319811682556001600160a01b03167f8be0079c531659141344cd1fd0a4f28419497f9722a3daafe3b4186f6b6457e08280a3005b346100c15760203660031901126100c1576001600160a01b0361032a610762565b1660005260036020526020604060002054604051908152f35b346100c15760403660031901126100c15761035c610762565b6024358015610444576001546040516323b872dd60e01b8152336004820152306024820152604481018390529290602090849060649082906000906001600160a01b03165af1928315610229576020936103bd9160009161042757506107b3565b6001600160a01b03166000818152600384526040902080546103e09084906107f1565b90556103ee826004546107f1565b6004557f73a19dd210f1a7f902193214c0ee91dd35ee5b4d920cba8d519eca65a7b488ca604080518481528486820152a2604051908152f35b61043e9150853d871161022257610214818361072a565b856101f2565b60405162461bcd60e51b815260206004820152600b60248201526a16995c9bc8185b5bdd5b9d60aa1b6044820152606490fd5b346100c15760203660031901126100c15760043580156105b857336000526003602052806040600020541061057d5733600052600360205260406000206104bf828254610778565b90556104cd81600454610778565b600490815560015460405163a9059cbb60e01b8152339281019290925260248201839052909190602090839060449082906000906001600160a01b03165af1918215610229576020926105279160009161056057506107b3565b60405181815281838201527f92ccf450a286a957af52509bc1c9939d1a6a481783e142e41e2499f0bb66ebc660403392a2604051908152f35b6105779150843d861161022257610214818361072a565b846101f2565b60405162461bcd60e51b8152602060048201526013602482015272496e73756666696369656e742073686172657360681b6044820152606490fd5b60405162461bcd60e51b815260206004820152600b60248201526a5a65726f2073686172657360a81b6044820152606490fd5b346100c15760003660031901126100c1576000600254908160011c91600181168015610720575b60208410811461070c5783855284929181156106ed575060011461068c575b61063d9250038261072a565b60405190602082528181519182602083015260005b8381106106745750508160006040809484010152601f80199101168101030190f35b60208282018101516040878401015285935001610652565b509060026000527f405787fa12a823e0f2b7631cc41b3ba8828b3321ca811111fa75cd3aa3bb5ace906000915b8183106106d157505090602061063d92820101610631565b60209193508060019154838588010152019101909183926106b9565b6020925061063d94915060ff191682840152151560051b820101610631565b634e487b7160e01b83526022600452602483fd5b92607f1692610612565b90601f8019910116810190811067ffffffffffffffff82111761074c57604052565b634e487b7160e01b600052604160045260246000fd5b600435906001600160a01b03821682036100c157565b9190820391821161078557565b634e487b7160e01b600052601160045260246000fd5b908160209103126100c1575180151581036100c15790565b156107ba57565b60405162461bcd60e51b815260206004820152600f60248201526e151c985b9cd9995c8819985a5b1959608a1b6044820152606490fd5b9190820180921161078557565b6000546001600160a01b0316330361081257565b63118cdaa760e01b6000523360045260246000fdfea2646970667358221220df4c01a013e3543e509ba74b56670a46283190d6b99ad527a3254049e466e4cb64736f6c634300081a0033","opcodes":"PUSH1 0x80 PUSH1 0x40 MSTORE CALLVALUE PUSH2 0x2AC JUMPI PUSH2 0xB34 DUP1 CODESIZE SUB DUP1 PUSH2 0x19 DUP2 PUSH2 0x2B1 JUMP JUMPDEST SWAP3 DUP4 CODECOPY DUP2 ADD SWAP1 PUSH1 0x40 DUP2 DUP4 SUB SLT PUSH2 0x2AC JUMPI DUP1 MLOAD PUSH1 0x1 PUSH1 0x1 PUSH1 0xA0 SHL SUB DUP2 AND SWAP2 SWAP1 DUP3 SWAP1 SUB PUSH2 0x2AC JUMPI PUSH1 0x20 DUP2 ADD MLOAD SWAP1 PUSH1 0x1 PUSH1 0x1 PUSH1 0x40 SHL SUB DUP3 GT PUSH2 0x2AC JUMPI ADD DUP3 PUSH1 0x1F DUP3 ADD SLT ISZERO PUSH2 0x2AC JUMPI DUP1 MLOAD SWAP1 PUSH1 0x1 PUSH1 0x1 PUSH1 0x40 SHL SUB DUP3 GT PUSH2 0x26B JUMPI PUSH2 0x82 PUSH1 0x1F DUP4 ADD PUSH1 0x1F NOT AND PUSH1 0x20 ADD PUSH2 0x2B1 JUMP JUMPDEST SWAP4 DUP3 DUP6 MSTORE PUSH1 0x20 DUP4 DUP4 ADD ADD GT PUSH2 0x2AC JUMPI PUSH1 0x0 JUMPDEST DUP3 DUP2 LT PUSH2 0x297 JUMPI POP POP PUSH1 0x20 PUSH1 0x0 SWAP2 DUP5 ADD ADD MSTORE CALLER ISZERO PUSH2 0x281 JUMPI PUSH1 0x0 DUP1 SLOAD CALLER PUSH1 0x1 PUSH1 0x1 PUSH1 0xA0 SHL SUB NOT DUP3 AND DUP2 OR DUP4 SSTORE SWAP2 PUSH1 0x1 PUSH1 0x1 PUSH1 0xA0 SHL SUB SWAP1 SWAP2 AND SWAP1 PUSH32 0x8BE0079C531659141344CD1FD0A4F28419497F9722A3DAAFE3B4186F6B6457E0 SWAP1 DUP1 LOG3 PUSH1 0x1 DUP1 SLOAD PUSH1 0x1 PUSH1 0x1 PUSH1 0xA0 SHL SUB NOT AND SWAP2 SWAP1 SWAP2 OR SWAP1 SSTORE DUP1 MLOAD PUSH1 0x1 PUSH1 0x1 PUSH1 0x40 SHL SUB DUP2 GT PUSH2 0x26B JUMPI PUSH1 0x2 SLOAD PUSH1 0x1 DUP2 DUP2 SHR SWAP2 AND DUP1 ISZERO PUSH2 0x261 JUMPI JUMPDEST PUSH1 0x20 DUP3 LT EQ PUSH2 0x24B JUMPI PUSH1 0x1F DUP2 GT PUSH2 0x1E6 JUMPI JUMPDEST POP PUSH1 0x20 SWAP2 PUSH1 0x1F DUP3 GT PUSH1 0x1 EQ PUSH2 0x182 JUMPI SWAP2 DUP2 SWAP3 PUSH1 0x0 SWAP3 PUSH2 0x177 JUMPI JUMPDEST POP POP DUP2 PUSH1 0x1 SHL SWAP2 PUSH1 0x0 NOT SWAP1 PUSH1 0x3 SHL SHR NOT AND OR PUSH1 0x2 SSTORE JUMPDEST PUSH1 0x40 MLOAD PUSH2 0x85D SWAP1 DUP2 PUSH2 0x2D7 DUP3 CODECOPY RETURN JUMPDEST ADD MLOAD SWAP1 POP CODESIZE DUP1 PUSH2 0x152 JUMP JUMPDEST PUSH1 0x1F NOT DUP3 AND SWAP3 PUSH1 0x2 PUSH1 0x0 MSTORE DUP1 PUSH1 0x0 KECCAK256 SWAP2 PUSH1 0x0 JUMPDEST DUP6 DUP2 LT PUSH2 0x1CE JUMPI POP DUP4 PUSH1 0x1 SWAP6 LT PUSH2 0x1B5 JUMPI JUMPDEST POP POP POP DUP2 SHL ADD PUSH1 0x2 SSTORE PUSH2 0x168 JUMP JUMPDEST ADD MLOAD PUSH1 0x0 NOT PUSH1 0xF8 DUP5 PUSH1 0x3 SHL AND SHR NOT AND SWAP1 SSTORE CODESIZE DUP1 DUP1 PUSH2 0x1A7 JUMP JUMPDEST SWAP2 SWAP3 PUSH1 0x20 PUSH1 0x1 DUP2 SWAP3 DUP7 DUP6 ADD MLOAD DUP2 SSTORE ADD SWAP5 ADD SWAP3 ADD PUSH2 0x195 JUMP JUMPDEST PUSH1 0x2 PUSH1 0x0 MSTORE PUSH32 0x405787FA12A823E0F2B7631CC41B3BA8828B3321CA811111FA75CD3AA3BB5ACE PUSH1 0x1F DUP4 ADD PUSH1 0x5 SHR DUP2 ADD SWAP2 PUSH1 0x20 DUP5 LT PUSH2 0x241 JUMPI JUMPDEST PUSH1 0x1F ADD PUSH1 0x5 SHR ADD SWAP1 JUMPDEST DUP2 DUP2 LT PUSH2 0x235 JUMPI POP PUSH2 0x138 JUMP JUMPDEST PUSH1 0x0 DUP2 SSTORE PUSH1 0x1 ADD PUSH2 0x228 JUMP JUMPDEST SWAP1 SWAP2 POP DUP2 SWAP1 PUSH2 0x21F JUMP JUMPDEST PUSH4 0x4E487B71 PUSH1 0xE0 SHL PUSH1 0x0 MSTORE PUSH1 0x22 PUSH1 0x4 MSTORE PUSH1 0x24 PUSH1 0x0 REVERT JUMPDEST SWAP1 PUSH1 0x7F AND SWAP1 PUSH2 0x126 JUMP JUMPDEST PUSH4 0x4E487B71 PUSH1 0xE0 SHL PUSH1 0x0 MSTORE PUSH1 0x41 PUSH1 0x4 MSTORE PUSH1 0x24 PUSH1 0x0 REVERT JUMPDEST PUSH4 0x1E4FBDF7 PUSH1 0xE0 SHL PUSH1 0x0 MSTORE PUSH1 0x0 PUSH1 0x4 MSTORE PUSH1 0x24 PUSH1 0x0 REVERT JUMPDEST DUP1 PUSH1 0x20 DUP1 SWAP3 DUP5 ADD ADD MLOAD DUP3 DUP3 DUP9 ADD ADD MSTORE ADD PUSH2 0x94 JUMP JUMPDEST PUSH1 0x0 DUP1 REVERT JUMPDEST PUSH1 0x40 MLOAD SWAP2 SWAP1 PUSH1 0x1F ADD PUSH1 0x1F NOT AND DUP3 ADD PUSH1 0x1 PUSH1 0x1 PUSH1 0x40 SHL SUB DUP2 GT DUP4 DUP3 LT OR PUSH2 0x26B JUMPI PUSH1 0x40 MSTORE JUMP INVALID PUSH1 0x80 DUP1 PUSH1 0x40 MSTORE PUSH1 0x4 CALLDATASIZE LT ISZERO PUSH2 0x13 JUMPI PUSH1 0x0 DUP1 REVERT JUMPDEST PUSH1 0x0 CALLDATALOAD PUSH1 0xE0 SHR SWAP1 DUP2 PUSH4 0x6FDDE03 EQ PUSH2 0x5EB JUMPI POP DUP1 PUSH4 0x27E235E3 EQ PUSH2 0x309 JUMPI DUP1 PUSH4 0x2E1A7D4D EQ PUSH2 0x477 JUMPI DUP1 PUSH4 0x47E7EF24 EQ PUSH2 0x343 JUMPI DUP1 PUSH4 0x70A08231 EQ PUSH2 0x309 JUMPI DUP1 PUSH4 0x715018A6 EQ PUSH2 0x2B0 JUMPI DUP1 PUSH4 0x7D882097 EQ PUSH2 0x292 JUMPI DUP1 PUSH4 0x8DA5CB5B EQ PUSH2 0x269 JUMPI DUP1 PUSH4 0xDB2E21BC EQ PUSH2 0x14F JUMPI DUP1 PUSH4 0xF2FDE38B EQ PUSH2 0xC6 JUMPI PUSH4 0xFC0C546A EQ PUSH2 0x98 JUMPI PUSH1 0x0 DUP1 REVERT JUMPDEST CALLVALUE PUSH2 0xC1 JUMPI PUSH1 0x0 CALLDATASIZE PUSH1 0x3 NOT ADD SLT PUSH2 0xC1 JUMPI PUSH1 0x1 SLOAD PUSH1 0x40 MLOAD PUSH1 0x1 PUSH1 0x1 PUSH1 0xA0 SHL SUB SWAP1 SWAP2 AND DUP2 MSTORE PUSH1 0x20 SWAP1 RETURN JUMPDEST PUSH1 0x0 DUP1 REVERT JUMPDEST CALLVALUE PUSH2 0xC1 JUMPI PUSH1 0x20 CALLDATASIZE PUSH1 0x3 NOT ADD SLT PUSH2 0xC1 JUMPI PUSH2 0xDF PUSH2 0x762 JUMP JUMPDEST PUSH2 0xE7 PUSH2 0x7FE JUMP JUMPDEST PUSH1 0x1 PUSH1 0x1 PUSH1 0xA0 SHL SUB AND DUP1 ISZERO PUSH2 0x139 JUMPI PUSH1 0x0 DUP1 SLOAD PUSH1 0x1 PUSH1 0x1 PUSH1 0xA0 SHL SUB NOT DUP2 AND DUP4 OR DUP3 SSTORE PUSH1 0x1 PUSH1 0x1 PUSH1 0xA0 SHL SUB AND SWAP1 PUSH32 0x8BE0079C531659141344CD1FD0A4F28419497F9722A3DAAFE3B4186F6B6457E0 SWAP1 DUP1 LOG3 STOP JUMPDEST PUSH4 0x1E4FBDF7 PUSH1 0xE0 SHL PUSH1 0x0 MSTORE PUSH1 0x0 PUSH1 0x4 MSTORE PUSH1 0x24 PUSH1 0x0 REVERT JUMPDEST CALLVALUE PUSH2 0xC1 JUMPI PUSH1 0x0 CALLDATASIZE PUSH1 0x3 NOT ADD SLT PUSH2 0xC1 JUMPI PUSH2 0x168 PUSH2 0x7FE JUMP JUMPDEST PUSH1 0x1 SLOAD PUSH1 0x40 MLOAD PUSH4 0x70A08231 PUSH1 0xE0 SHL DUP2 MSTORE ADDRESS PUSH1 0x4 DUP3 ADD MSTORE PUSH1 0x1 PUSH1 0x1 PUSH1 0xA0 SHL SUB SWAP1 SWAP2 AND SWAP1 PUSH1 0x20 DUP2 PUSH1 0x24 DUP2 DUP6 GAS STATICCALL SWAP1 DUP2 ISZERO PUSH2 0x229 JUMPI PUSH1 0x0 SWAP2 PUSH2 0x235 JUMPI JUMPDEST POP PUSH1 0x0 DUP1 SLOAD PUSH1 0x40 MLOAD PUSH4 0xA9059CBB PUSH1 0xE0 SHL DUP2 MSTORE PUSH1 0x1 PUSH1 0x1 PUSH1 0xA0 SHL SUB SWAP1 SWAP2 AND PUSH1 0x4 DUP3 ADD MSTORE PUSH1 0x24 DUP2 ADD SWAP3 SWAP1 SWAP3 MSTORE SWAP1 SWAP2 PUSH1 0x20 SWAP2 DUP4 SWAP2 SWAP1 DUP3 SWAP1 DUP2 PUSH1 0x44 DUP2 ADD JUMPDEST SUB SWAP3 GAS CALL DUP1 ISZERO PUSH2 0x229 JUMPI PUSH2 0x1F8 SWAP2 PUSH1 0x0 SWAP2 PUSH2 0x1FA JUMPI JUMPDEST POP PUSH2 0x7B3 JUMP JUMPDEST STOP JUMPDEST PUSH2 0x21C SWAP2 POP PUSH1 0x20 RETURNDATASIZE PUSH1 0x20 GT PUSH2 0x222 JUMPI JUMPDEST PUSH2 0x214 DUP2 DUP4 PUSH2 0x72A JUMP JUMPDEST DUP2 ADD SWAP1 PUSH2 0x79B JUMP JUMPDEST DUP3 PUSH2 0x1F2 JUMP JUMPDEST POP RETURNDATASIZE PUSH2 0x20A JUMP JUMPDEST PUSH1 0x40 MLOAD RETURNDATASIZE PUSH1 0x0 DUP3 RETURNDATACOPY RETURNDATASIZE SWAP1 REVERT JUMPDEST SWAP1 POP PUSH1 0x20 DUP2 RETURNDATASIZE PUSH1 0x20 GT PUSH2 0x261 JUMPI JUMPDEST DUP2 PUSH2 0x250 PUSH1 0x20 SWAP4 DUP4 PUSH2 0x72A JUMP JUMPDEST DUP2 ADD SUB SLT PUSH2 0xC1 JUMPI MLOAD PUSH2 0x1DC PUSH2 0x1A2 JUMP JUMPDEST RETURNDATASIZE SWAP2 POP PUSH2 0x243 JUMP JUMPDEST CALLVALUE PUSH2 0xC1 JUMPI PUSH1 0x0 CALLDATASIZE PUSH1 0x3 NOT ADD SLT PUSH2 0xC1 JUMPI PUSH1 0x0 SLOAD PUSH1 0x40 MLOAD PUSH1 0x1 PUSH1 0x1 PUSH1 0xA0 SHL SUB SWAP1 SWAP2 AND DUP2 MSTORE PUSH1 0x20 SWAP1 RETURN JUMPDEST CALLVALUE PUSH2 0xC1 JUMPI PUSH1 0x0 CALLDATASIZE PUSH1 0x3 NOT ADD SLT PUSH2 0xC1 JUMPI PUSH1 0x20 PUSH1 0x4 SLOAD PUSH1 0x40 MLOAD SWAP1 DUP2 MSTORE RETURN JUMPDEST CALLVALUE PUSH2 0xC1 JUMPI PUSH1 0x0 CALLDATASIZE PUSH1 0x3 NOT ADD SLT PUSH2 0xC1 JUMPI PUSH2 0x2C9 PUSH2 0x7FE JUMP JUMPDEST PUSH1 0x0 DUP1 SLOAD PUSH1 0x1 PUSH1 0x1 PUSH1 0xA0 SHL SUB NOT DUP2 AND DUP3 SSTORE PUSH1 0x1 PUSH1 0x1 PUSH1 0xA0 SHL SUB AND PUSH32 0x8BE0079C531659141344CD1FD0A4F28419497F9722A3DAAFE3B4186F6B6457E0 DUP3 DUP1 LOG3 STOP JUMPDEST CALLVALUE PUSH2 0xC1 JUMPI PUSH1 0x20 CALLDATASIZE PUSH1 0x3 NOT ADD SLT PUSH2 0xC1 JUMPI PUSH1 0x1 PUSH1 0x1 PUSH1 0xA0 SHL SUB PUSH2 0x32A PUSH2 0x762 JUMP JUMPDEST AND PUSH1 0x0 MSTORE PUSH1 0x3 PUSH1 0x20 MSTORE PUSH1 0x20 PUSH1 0x40 PUSH1 0x0 KECCAK256 SLOAD PUSH1 0x40 MLOAD SWAP1 DUP2 MSTORE RETURN JUMPDEST CALLVALUE PUSH2 0xC1 JUMPI PUSH1 0x40 CALLDATASIZE PUSH1 0x3 NOT ADD SLT PUSH2 0xC1 JUMPI PUSH2 0x35C PUSH2 0x762 JUMP JUMPDEST PUSH1 0x24 CALLDATALOAD DUP1 ISZERO PUSH2 0x444 JUMPI PUSH1 0x1 SLOAD PUSH1 0x40 MLOAD PUSH4 0x23B872DD PUSH1 0xE0 SHL DUP2 MSTORE CALLER PUSH1 0x4 DUP3 ADD MSTORE ADDRESS PUSH1 0x24 DUP3 ADD MSTORE PUSH1 0x44 DUP2 ADD DUP4 SWAP1 MSTORE SWAP3 SWAP1 PUSH1 0x20 SWAP1 DUP5 SWAP1 PUSH1 0x64 SWAP1 DUP3 SWAP1 PUSH1 0x0 SWAP1 PUSH1 0x1 PUSH1 0x1 PUSH1 0xA0 SHL SUB AND GAS CALL SWAP3 DUP4 ISZERO PUSH2 0x229 JUMPI PUSH1 0x20 SWAP4 PUSH2 0x3BD SWAP2 PUSH1 0x0 SWAP2 PUSH2 0x427 JUMPI POP PUSH2 0x7B3 JUMP JUMPDEST PUSH1 0x1 PUSH1 0x1 PUSH1 0xA0 SHL SUB AND PUSH1 0x0 DUP2 DUP2 MSTORE PUSH1 0x3 DUP5 MSTORE PUSH1 0x40 SWAP1 KECCAK256 DUP1 SLOAD PUSH2 0x3E0 SWAP1 DUP5 SWAP1 PUSH2 0x7F1 JUMP JUMPDEST SWAP1 SSTORE PUSH2 0x3EE DUP3 PUSH1 0x4 SLOAD PUSH2 0x7F1 JUMP JUMPDEST PUSH1 0x4 SSTORE PUSH32 0x73A19DD210F1A7F902193214C0EE91DD35EE5B4D920CBA8D519ECA65A7B488CA PUSH1 0x40 DUP1 MLOAD DUP5 DUP2 MSTORE DUP5 DUP7 DUP3 ADD MSTORE LOG2 PUSH1 0x40 MLOAD SWAP1 DUP2 MSTORE RETURN JUMPDEST PUSH2 0x43E SWAP2 POP DUP6 RETURNDATASIZE DUP8 GT PUSH2 0x222 JUMPI PUSH2 0x214 DUP2 DUP4 PUSH2 0x72A JUMP JUMPDEST DUP6 PUSH2 0x1F2 JUMP JUMPDEST PUSH1 0x40 MLOAD PUSH3 0x461BCD PUSH1 0xE5 SHL DUP2 MSTORE PUSH1 0x20 PUSH1 0x4 DUP3 ADD MSTORE PUSH1 0xB PUSH1 0x24 DUP3 ADD MSTORE PUSH11 0x16995C9BC8185B5BDD5B9D PUSH1 0xAA SHL PUSH1 0x44 DUP3 ADD MSTORE PUSH1 0x64 SWAP1 REVERT JUMPDEST CALLVALUE PUSH2 0xC1 JUMPI PUSH1 0x20 CALLDATASIZE PUSH1 0x3 NOT ADD SLT PUSH2 0xC1 JUMPI PUSH1 0x4 CALLDATALOAD DUP1 ISZERO PUSH2 0x5B8 JUMPI CALLER PUSH1 0x0 MSTORE PUSH1 0x3 PUSH1 0x20 MSTORE DUP1 PUSH1 0x40 PUSH1 0x0 KECCAK256 SLOAD LT PUSH2 0x57D JUMPI CALLER PUSH1 0x0 MSTORE PUSH1 0x3 PUSH1 0x20 MSTORE PUSH1 0x40 PUSH1 0x0 KECCAK256 PUSH2 0x4BF DUP3 DUP3 SLOAD PUSH2 0x778 JUMP JUMPDEST SWAP1 SSTORE PUSH2 0x4CD DUP2 PUSH1 0x4 SLOAD PUSH2 0x778 JUMP JUMPDEST PUSH1 0x4 SWAP1 DUP2 SSTORE PUSH1 0x1 SLOAD PUSH1 0x40 MLOAD PUSH4 0xA9059CBB PUSH1 0xE0 SHL DUP2 MSTORE CALLER SWAP3 DUP2 ADD SWAP3 SWAP1 SWAP3 MSTORE PUSH1 0x24 DUP3 ADD DUP4 SWAP1 MSTORE SWAP1 SWAP2 SWAP1 PUSH1 0x20 SWAP1 DUP4 SWAP1 PUSH1 0x44 SWAP1 DUP3 SWAP1 PUSH1 0x0 SWAP1 PUSH1 0x1 PUSH1 0x1 PUSH1 0xA0 SHL SUB AND GAS CALL SWAP2 DUP3 ISZERO PUSH2 0x229 JUMPI PUSH1 0x20 SWAP3 PUSH2 0x527 SWAP2 PUSH1 0x0 SWAP2 PUSH2 0x560 JUMPI POP PUSH2 0x7B3 JUMP JUMPDEST PUSH1 0x40 MLOAD DUP2 DUP2 MSTORE DUP2 DUP4 DUP3 ADD MSTORE PUSH32 0x92CCF450A286A957AF52509BC1C9939D1A6A481783E142E41E2499F0BB66EBC6 PUSH1 0x40 CALLER SWAP3 LOG2 PUSH1 0x40 MLOAD SWAP1 DUP2 MSTORE RETURN JUMPDEST PUSH2 0x577 SWAP2 POP DUP5 RETURNDATASIZE DUP7 GT PUSH2 0x222 JUMPI PUSH2 0x214 DUP2 DUP4 PUSH2 0x72A JUMP JUMPDEST DUP5 PUSH2 0x1F2 JUMP JUMPDEST PUSH1 0x40 MLOAD PUSH3 0x461BCD PUSH1 0xE5 SHL DUP2 MSTORE PUSH1 0x20 PUSH1 0x4 DUP3 ADD MSTORE PUSH1 0x13 PUSH1 0x24 DUP3 ADD MSTORE PUSH19 0x496E73756666696369656E7420736861726573 PUSH1 0x68 SHL PUSH1 0x44 DUP3 ADD MSTORE PUSH1 0x64 SWAP1 REVERT JUMPDEST PUSH1 0x40 MLOAD PUSH3 0x461BCD PUSH1 0xE5 SHL DUP2 MSTORE PUSH1 0x20 PUSH1 0x4 DUP3 ADD MSTORE PUSH1 0xB PUSH1 0x24 DUP3 ADD MSTORE PUSH11 0x5A65726F20736861726573 PUSH1 0xA8 SHL PUSH1 0x44 DUP3 ADD MSTORE PUSH1 0x64 SWAP1 REVERT JUMPDEST CALLVALUE PUSH2 0xC1 JUMPI PUSH1 0x0 CALLDATASIZE PUSH1 0x3 NOT ADD SLT PUSH2 0xC1 JUMPI PUSH1 0x0 PUSH1 0x2 SLOAD SWAP1 DUP2 PUSH1 0x1 SHR SWAP2 PUSH1 0x1 DUP2 AND DUP1 ISZERO PUSH2 0x720 JUMPI JUMPDEST PUSH1 0x20 DUP5 LT DUP2 EQ PUSH2 0x70C JUMPI DUP4 DUP6 MSTORE DUP5 SWAP3 SWAP2 DUP2 ISZERO PUSH2 0x6ED JUMPI POP PUSH1 0x1 EQ PUSH2 0x68C JUMPI JUMPDEST PUSH2 0x63D SWAP3 POP SUB DUP3 PUSH2 0x72A JUMP JUMPDEST PUSH1 0x40 MLOAD SWAP1 PUSH1 0x20 DUP3 MSTORE DUP2 DUP2 MLOAD SWAP2 DUP3 PUSH1 0x20 DUP4 ADD MSTORE PUSH1 0x0 JUMPDEST DUP4 DUP2 LT PUSH2 0x674 JUMPI POP POP DUP2 PUSH1 0x0 PUSH1 0x40 DUP1 SWAP5 DUP5 ADD ADD MSTORE PUSH1 0x1F DUP1 NOT SWAP2 ADD AND DUP2 ADD SUB ADD SWAP1 RETURN JUMPDEST PUSH1 0x20 DUP3 DUP3 ADD DUP2 ADD MLOAD PUSH1 0x40 DUP8 DUP5 ADD ADD MSTORE DUP6 SWAP4 POP ADD PUSH2 0x652 JUMP JUMPDEST POP SWAP1 PUSH1 0x2 PUSH1 0x0 MSTORE PUSH32 0x405787FA12A823E0F2B7631CC41B3BA8828B3321CA811111FA75CD3AA3BB5ACE SWAP1 PUSH1 0x0 SWAP2 JUMPDEST DUP2 DUP4 LT PUSH2 0x6D1 JUMPI POP POP SWAP1 PUSH1 0x20 PUSH2 0x63D SWAP3 DUP3 ADD ADD PUSH2 0x631 JUMP JUMPDEST PUSH1 0x20 SWAP2 SWAP4 POP DUP1 PUSH1 0x1 SWAP2 SLOAD DUP4 DUP6 DUP9 ADD ADD MSTORE ADD SWAP2 ADD SWAP1 SWAP2 DUP4 SWAP3 PUSH2 0x6B9 JUMP JUMPDEST PUSH1 0x20 SWAP3 POP PUSH2 0x63D SWAP5 SWAP2 POP PUSH1 0xFF NOT AND DUP3 DUP5 ADD MSTORE ISZERO ISZERO PUSH1 0x5 SHL DUP3 ADD ADD PUSH2 0x631 JUMP JUMPDEST PUSH4 0x4E487B71 PUSH1 0xE0 SHL DUP4 MSTORE PUSH1 0x22 PUSH1 0x4 MSTORE PUSH1 0x24 DUP4 REVERT JUMPDEST SWAP3 PUSH1 0x7F AND SWAP3 PUSH2 0x612 JUMP JUMPDEST SWAP1 PUSH1 0x1F DUP1 NOT SWAP2 ADD AND DUP2 ADD SWAP1 DUP2 LT PUSH8 0xFFFFFFFFFFFFFFFF DUP3 GT OR PUSH2 0x74C JUMPI PUSH1 0x40 MSTORE JUMP JUMPDEST PUSH4 0x4E487B71 PUSH1 0xE0 SHL PUSH1 0x0 MSTORE PUSH1 0x41 PUSH1 0x4 MSTORE PUSH1 0x24 PUSH1 0x0 REVERT JUMPDEST PUSH1 0x4 CALLDATALOAD SWAP1 PUSH1 0x1 PUSH1 0x1 PUSH1 0xA0 SHL SUB DUP3 AND DUP3 SUB PUSH2 0xC1 JUMPI JUMP JUMPDEST SWAP2 SWAP1 DUP3 SUB SWAP2 DUP3 GT PUSH2 0x785 JUMPI JUMP JUMPDEST PUSH4 0x4E487B71 PUSH1 0xE0 SHL PUSH1 0x0 MSTORE PUSH1 0x11 PUSH1 0x4 MSTORE PUSH1 0x24 PUSH1 0x0 REVERT JUMPDEST SWAP1 DUP2 PUSH1 0x20 SWAP2 SUB SLT PUSH2 0xC1 JUMPI MLOAD DUP1 ISZERO ISZERO DUP2 SUB PUSH2 0xC1 JUMPI SWAP1 JUMP JUMPDEST ISZERO PUSH2 0x7BA JUMPI JUMP JUMPDEST PUSH1 0x40 MLOAD PUSH3 0x461BCD PUSH1 0xE5 SHL DUP2 MSTORE PUSH1 0x20 PUSH1 0x4 DUP3 ADD MSTORE PUSH1 0xF PUSH1 0x24 DUP3 ADD MSTORE PUSH15 0x151C985B9CD9995C8819985A5B1959 PUSH1 0x8A SHL PUSH1 0x44 DUP3 ADD MSTORE PUSH1 0x64 SWAP1 REVERT JUMPDEST SWAP2 SWAP1 DUP3 ADD DUP1 SWAP3 GT PUSH2 0x785 JUMPI JUMP JUMPDEST PUSH1 0x0 SLOAD PUSH1 0x1 PUSH1 0x1 PUSH1 0xA0 SHL SUB AND CALLER SUB PUSH2 0x812 JUMPI JUMP JUMPDEST PUSH4 0x118CDAA7 PUSH1 0xE0 SHL PUSH1 0x0 MSTORE CALLER PUSH1 0x4 MSTORE PUSH1 0x24 PUSH1 0x0 REVERT INVALID LOG2 PUSH5 0x6970667358 0x22 SLT KECCAK256 0xDF 0x4C ADD LOG0 SGT 0xE3 SLOAD RETURNDATACOPY POP SWAP12 0xA7 0x4B JUMP PUSH8 0xA46283190D6B99A 0xD5 0x27 LOG3 0x25 BLOCKHASH BLOBHASH 0xE4 PUSH7 0xE4CB64736F6C63 NUMBER STOP ADDMOD BYTE STOP CALLER "},"methodIdentifiers":{"balanceOf(address)":"70a08231","balances(address)":"27e235e3","deposit(address,uint256)":"47e7ef24","emergencyWithdraw()":"db2e21bc","name()":"06fdde03","owner()":"8da5cb5b","renounceOwnership()":"715018a6","token()":"fc0c546a","totalDeposits()":"7d882097","transferOwnership(address)":"f2fde38b","withdraw(uint256)":"2e1a7d4d"}}}}}