{"contracts/AutoSplitRouter.sol":{"AutoSplitRouter":{"abi":[{"inputs":[],"stateMutability":"nonpayable","type":"constructor"},{"inputs":[{"internalType":"address","name":"owner","type":"address"}],"name":"OwnableInvalidOwner","type":"error"},{"inputs":[{"internalType":"address","name":"account","type":"address"}],"name":"OwnableUnauthorizedAccount","type":"error"},{"inputs":[],"name":"ReentrancyGuardReentrantCall","type":"error"},{"anonymous":false,"inputs":[{"indexed":true,"internalType":"address","name":"previousOwner","type":"address"},{"indexed":true,"internalType":"address","name":"newOwner","type":"address"}],"name":"OwnershipTransferred","type":"event"},{"anonymous":false,"inputs":[{"indexed":true,"internalType":"address","name":"sender","type":"address"},{"indexed":false,"internalType":"address","name":"token","type":"address"},{"indexed":false,"internalType":"uint256","name":"amount","type":"uint256"},{"indexed":false,"internalType":"address[]","name":"recipients","type":"address[]"},{"indexed":false,"internalType":"uint256[]","name":"amounts","type":"uint256[]"}],"name":"PaymentRouted","type":"event"},{"anonymous":false,"inputs":[{"indexed":true,"internalType":"address","name":"user","type":"address"},{"indexed":false,"internalType":"address[]","name":"recipients","type":"address[]"},{"indexed":false,"internalType":"uint256[]","name":"basisPoints","type":"uint256[]"},{"indexed":false,"internalType":"bool[]","name":"isVault","type":"bool[]"}],"name":"SplitRuleUpdated","type":"event"},{"anonymous":false,"inputs":[{"indexed":true,"internalType":"address","name":"vault","type":"address"},{"indexed":false,"internalType":"bool","name":"enabled","type":"bool"}],"name":"VaultAdapterUpdated","type":"event"},{"inputs":[{"internalType":"address","name":"user","type":"address"}],"name":"getSplitRules","outputs":[{"internalType":"address[]","name":"recipients","type":"address[]"},{"internalType":"uint256[]","name":"basisPoints","type":"uint256[]"},{"internalType":"bool[]","name":"isVault","type":"bool[]"}],"stateMutability":"view","type":"function"},{"inputs":[],"name":"owner","outputs":[{"internalType":"address","name":"","type":"address"}],"stateMutability":"view","type":"function"},{"inputs":[],"name":"renounceOwnership","outputs":[],"stateMutability":"nonpayable","type":"function"},{"inputs":[{"internalType":"address","name":"token","type":"address"},{"internalType":"uint256","name":"amount","type":"uint256"}],"name":"routePayment","outputs":[],"stateMutability":"nonpayable","type":"function"},{"inputs":[{"internalType":"address[]","name":"recipients","type":"address[]"},{"internalType":"uint256[]","name":"basisPoints","type":"uint256[]"},{"internalType":"bool[]","name":"isVault","type":"bool[]"}],"name":"setSplitRules","outputs":[],"stateMutability":"nonpayable","type":"function"},{"inputs":[{"internalType":"address","name":"vault","type":"address"},{"internalType":"bool","name":"enabled","type":"bool"}],"name":"setVaultAdapter","outputs":[],"stateMutability":"nonpayable","type":"function"},{"inputs":[],"name":"totalTransactions","outputs":[{"internalType":"uint256","name":"","type":"uint256"}],"stateMutability":"view","type":"function"},{"inputs":[],"name":"totalVolume","outputs":[{"internalType":"uint256","name":"","type":"uint256"}],"stateMutability":"view","type":"function"},{"inputs":[{"internalType":"address","name":"newOwner","type":"address"}],"name":"transferOwnership","outputs":[],"stateMutability":"nonpayable","type":"function"},{"inputs":[{"internalType":"address","name":"","type":"address"},{"internalType":"uint256","name":"","type":"uint256"}],"name":"userSplits","outputs":[{"internalType":"address","name":"recipient","type":"address"},{"internalType":"uint256","name":"basisPoints","type":"uint256"},{"internalType":"bool","name":"isVault","type":"bool"}],"stateMutability":"view","type":"function"},{"inputs":[{"internalType":"address","name":"","type":"address"}],"name":"vaultAdapters","outputs":[{"internalType":"bool","name":"","type":"bool"}],"stateMutability":"view","type":"function"},{"stateMutability":"payable","type":"receive"}],"evm":{"bytecode":{"linkReferences":{},"object":"60808060405234609957331560835760008054336001600160a01b0319821681178355916001600160a01b03909116907f8be0079c531659141344cd1fd0a4f28419497f9722a3daafe3b4186f6b6457e09080a360017f9b779b17422d0df92223018b32b4d1fa46e071723d6817e2486d003becc55f0055611165908161009f8239f35b631e4fbdf760e01b600052600060045260246000fd5b600080fdfe6080806040526004361015610060575b50361561001b57600080fd5b60405162461bcd60e51b815260206004820152601b60248201527f55736520455243323020746f6b656e7320666f722073706c69747300000000006044820152606490fd5b60003560e01c9081634adde6e614610e8f57508063555feb0914610d445780635f81a57c14610d26578063715018a614610ccd578063756513e4146107fc57806377bb68f1146107745780638da5cb5b1461074b578063ab3b16751461020a578063b9a60038146101ec578063ca5d6986146101745763f2fde38b146100e6573861000f565b3461016f57602036600319011261016f576100ff610eca565b610107611106565b6001600160a01b0316801561015957600080546001600160a01b03198116831782556001600160a01b0316907f8be0079c531659141344cd1fd0a4f28419497f9722a3daafe3b4186f6b6457e09080a3005b631e4fbdf760e01b600052600060045260246000fd5b600080fd5b3461016f57604036600319011261016f5761018d610eca565b6001600160a01b031660009081526001602052604090208054602435919082101561016f576060916101be91610f82565b5060018060a01b038154169060ff600260018301549201541690604051928352602083015215156040820152f35b3461016f57600036600319011261016f576020600354604051908152f35b3461016f57604036600319011261016f57610223610eca565b60243560027f9b779b17422d0df92223018b32b4d1fa46e071723d6817e2486d003becc55f00541461073a5760027f9b779b17422d0df92223018b32b4d1fa46e071723d6817e2486d003becc55f005533600052600160205260406000209081549283156107045781156106d1576040516323b872dd60e01b8152336004820152306024820152604481018390526001600160a01b0391909116906020816064816000865af180156105c1576102e1916000916106b2575b506110c8565b6102ea84610fee565b6102f385610fee565b93600354600019811461065657600101600355610312846004546110a3565b6004556000600019870187811190825b8981106103aa57887f49343d927342553e887f4f418bede788d904dda19262752a88c45153f9e07c7789896103816103728b60405194859485526020850152608060408501526080840190610ee0565b82810360608401523395610f1d565b0390a260017f9b779b17422d0df92223018b32b4d1fa46e071723d6817e2486d003becc55f0055005b60008361069e5781830361066c5750838803888111610656575b6103ce8287610f82565b50546001600160a01b03166103e38389611020565b52806103ef838c611020565b5260ff60026103fe8489610f82565b50015416156105cd5761044a602082610417858a610f82565b505460405163095ea7b360e01b81526001600160a01b039091166004820152602481019190915291829081906044820190565b038160008d5af19081156105c157600091610593575b501561055757600080916104748489610f82565b505460405163b6b55f2560e01b602082019081523360248301526044808301949094529281526001600160a01b03909116919083906104b4606482610fb4565b51925af13d15610552573d67ffffffffffffffff811161053c57604051906104e6601f8201601f191660200183610fb4565b8152600060203d92013e5b15610500576001905b01610322565b60405162461bcd60e51b815260206004820152601460248201527315985d5b1d0819195c1bdcda5d0819985a5b195960621b6044820152606490fd5b634e487b7160e01b600052604160045260246000fd5b6104f1565b60405162461bcd60e51b815260206004820152601460248201527315985d5b1d08185c1c1c9bdd994819985a5b195960621b6044820152606490fd5b6105b4915060203d81116105ba575b6105ac8183610fb4565b8101906110b0565b8c610460565b503d6105a2565b6040513d6000823e3d90fd5b906020610611926105de8389610f82565b505460405163a9059cbb60e01b81526001600160a01b039091166004820152602481019190915292839081906044820190565b038160008c5af19182156105c1576001926106339160009161063857506110c8565b6104fa565b610650915060203d81116105ba576105ac8183610fb4565b8d6102db565b634e487b7160e01b600052601160045260246000fd5b60016106788388610f82565b50015490818a02918a83040361069e5750612710610698910480956110a3565b936103c4565b634e487b7160e01b81526011600452602490fd5b6106cb915060203d6020116105ba576105ac8183610fb4565b866102db565b60405162461bcd60e51b815260206004820152600b60248201526a16995c9bc8185b5bdd5b9d60aa1b6044820152606490fd5b60405162461bcd60e51b815260206004820152600e60248201526d4e6f2073706c69742072756c657360901b6044820152606490fd5b633ee5aeb560e01b60005260046000fd5b3461016f57600036600319011261016f576000546040516001600160a01b039091168152602090f35b3461016f57604036600319011261016f5761078d610eca565b602435908115159081830361016f577f21fb39c4483acea5a0c46564e54a29118ea92ef55ac3ea30289aca6967db5781916107f36020926107cc611106565b60018060a01b031694856000526002845260406000209060ff801983541691151516179055565b604051908152a2005b3461016f57606036600319011261016f5760043567ffffffffffffffff811161016f5761082d903690600401610f51565b60243567ffffffffffffffff811161016f5761084d903690600401610f51565b60443567ffffffffffffffff811161016f5761086d903690600401610f51565b92909461087b838614611034565b610886848614611034565b8415610c9957600a8511610c62576000805b868210610b2957612710915003610af15733600052600160205260406000208054906000815581610ab3575b505060005b8581106109af575060405194806060870160608852526080860191906000905b8082106109855750505084810360208601528281526001600160fb1b03831161016f5760409260051b8092602083013701826020820160208684030184870152520192906000905b80821061096157337f1153a65caadc1a1b7c72682e8bd65e8a90e813115a94050c9ec47a8b7980111f85870386a2005b90919384359081151580920361016f57602081600193829352019501920190610931565b90919283359060018060a01b03821680920361016f576020816001938293520194019201906108e9565b3360005260016020526040600020906109d16109cc828986611072565b611082565b6109dc828787611072565b35906109f16109ec848a8d611072565b611096565b93604051916060830183811067ffffffffffffffff82111761053c5760405260018060a01b031682526020820192835260408201941515855280546801000000000000000081101561053c57610a4c91600182018155610f82565b919091610a9d57600194610a9793600292878060a01b039051166bffffffffffffffffffffffff60a01b855416178455518684015551151591019060ff801983541691151516179055565b016108c9565b634e487b7160e01b600052600060045260246000fd5b81600302916003830403610656576000526020600020908101905b818110156108c45780600060039255600060018201556000600282015501610ace565b60405162461bcd60e51b815260206004820152601060248201526f4d7573742073756d20746f203130302560801b6044820152606490fd5b610b34828686611072565b3515610c29576001600160a01b03610b506109cc848a87611072565b1615610bf057610b646109ec83888b611072565b610b89575b610b81600191610b7a848888611072565b35906110a3565b910190610898565b6001600160a01b03610b9f6109cc848a87611072565b16600052600260205260ff60406000205416610b695760405162461bcd60e51b81526020600482015260136024820152722737ba1030903b30bab63a1030b230b83a32b960691b6044820152606490fd5b60405162461bcd60e51b8152602060048201526011602482015270125b9d985b1a59081c9958da5c1a595b9d607a1b6044820152606490fd5b60405162461bcd60e51b81526020600482015260116024820152705a65726f20626173697320706f696e747360781b6044820152606490fd5b60405162461bcd60e51b815260206004820152600f60248201526e546f6f206d616e792073706c69747360881b6044820152606490fd5b60405162461bcd60e51b815260206004820152600c60248201526b456d7074792073706c69747360a01b6044820152606490fd5b3461016f57600036600319011261016f57610ce6611106565b600080546001600160a01b0319811682556001600160a01b03167f8be0079c531659141344cd1fd0a4f28419497f9722a3daafe3b4186f6b6457e08280a3005b3461016f57600036600319011261016f576020600454604051908152f35b3461016f57602036600319011261016f576001600160a01b03610d65610eca565b1660005260016020526040600020805490610d7f82610fee565b91610d8981610fee565b610d9282610fd6565b91610da06040519384610fb4565b808352610dac81610fd6565b602084019490601f190136863760005b828110610e2d57610de38787876020610df089604051968796606088526060880190610ee0565b9086820384880152610f1d565b918483036040860152519182815201919060005b818110610e12575050500390f35b82511515845285945060209384019390920191600101610e04565b80610e3a60019284610f82565b50828060a01b03905416610e4e828a611020565b5281610e5a8285610f82565b500154610e678287611020565b5260ff6002610e768386610f82565b50015416610e848288611020565b901515905201610dbc565b3461016f57602036600319011261016f576020906001600160a01b03610eb3610eca565b166000526002825260ff6040600020541615158152f35b600435906001600160a01b038216820361016f57565b906020808351928381520192019060005b818110610efe5750505090565b82516001600160a01b0316845260209384019390920191600101610ef1565b906020808351928381520192019060005b818110610f3b5750505090565b8251845260209384019390920191600101610f2e565b9181601f8401121561016f5782359167ffffffffffffffff831161016f576020808501948460051b01011161016f57565b8054821015610f9e576000526003602060002091020190600090565b634e487b7160e01b600052603260045260246000fd5b90601f8019910116810190811067ffffffffffffffff82111761053c57604052565b67ffffffffffffffff811161053c5760051b60200190565b90610ff882610fd6565b6110056040519182610fb4565b8281528092611016601f1991610fd6565b0190602036910137565b8051821015610f9e5760209160051b010190565b1561103b57565b60405162461bcd60e51b815260206004820152600f60248201526e098cadccee8d040dad2e6dac2e8c6d608b1b6044820152606490fd5b9190811015610f9e5760051b0190565b356001600160a01b038116810361016f5790565b35801515810361016f5790565b9190820180921161065657565b9081602091031261016f5751801515810361016f5790565b156110cf57565b60405162461bcd60e51b815260206004820152600f60248201526e151c985b9cd9995c8819985a5b1959608a1b6044820152606490fd5b6000546001600160a01b0316330361111a57565b63118cdaa760e01b6000523360045260246000fdfea26469706673582212207a213f07873d12834f2ebd4b1bb72061654d3e9daa66471aa66176b0c9b86a3164736f6c634300081a0033","opcodes":"PUSH1 0x80 DUP1 PUSH1 0x40 MSTORE CALLVALUE PUSH1 0x99 JUMPI CALLER ISZERO PUSH1 0x83 JUMPI PUSH1 0x0 DUP1 SLOAD CALLER PUSH1 0x1 PUSH1 0x1 PUSH1 0xA0 SHL SUB NOT DUP3 AND DUP2 OR DUP4 SSTORE SWAP2 PUSH1 0x1 PUSH1 0x1 PUSH1 0xA0 SHL SUB SWAP1 SWAP2 AND SWAP1 PUSH32 0x8BE0079C531659141344CD1FD0A4F28419497F9722A3DAAFE3B4186F6B6457E0 SWAP1 DUP1 LOG3 PUSH1 0x1 PUSH32 0x9B779B17422D0DF92223018B32B4D1FA46E071723D6817E2486D003BECC55F00 SSTORE PUSH2 0x1165 SWAP1 DUP2 PUSH2 0x9F DUP3 CODECOPY RETURN JUMPDEST PUSH4 0x1E4FBDF7 PUSH1 0xE0 SHL PUSH1 0x0 MSTORE PUSH1 0x0 PUSH1 0x4 MSTORE PUSH1 0x24 PUSH1 0x0 REVERT JUMPDEST PUSH1 0x0 DUP1 REVERT INVALID PUSH1 0x80 DUP1 PUSH1 0x40 MSTORE PUSH1 0x4 CALLDATASIZE LT ISZERO PUSH2 0x60 JUMPI JUMPDEST POP CALLDATASIZE ISZERO PUSH2 0x1B JUMPI PUSH1 0x0 DUP1 REVERT JUMPDEST PUSH1 0x40 MLOAD PUSH3 0x461BCD PUSH1 0xE5 SHL DUP2 MSTORE PUSH1 0x20 PUSH1 0x4 DUP3 ADD MSTORE PUSH1 0x1B PUSH1 0x24 DUP3 ADD MSTORE PUSH32 0x55736520455243323020746F6B656E7320666F722073706C6974730000000000 PUSH1 0x44 DUP3 ADD MSTORE PUSH1 0x64 SWAP1 REVERT JUMPDEST PUSH1 0x0 CALLDATALOAD PUSH1 0xE0 SHR SWAP1 DUP2 PUSH4 0x4ADDE6E6 EQ PUSH2 0xE8F JUMPI POP DUP1 PUSH4 0x555FEB09 EQ PUSH2 0xD44 JUMPI DUP1 PUSH4 0x5F81A57C EQ PUSH2 0xD26 JUMPI DUP1 PUSH4 0x715018A6 EQ PUSH2 0xCCD JUMPI DUP1 PUSH4 0x756513E4 EQ PUSH2 0x7FC JUMPI DUP1 PUSH4 0x77BB68F1 EQ PUSH2 0x774 JUMPI DUP1 PUSH4 0x8DA5CB5B EQ PUSH2 0x74B JUMPI DUP1 PUSH4 0xAB3B1675 EQ PUSH2 0x20A JUMPI DUP1 PUSH4 0xB9A60038 EQ PUSH2 0x1EC JUMPI DUP1 PUSH4 0xCA5D6986 EQ PUSH2 0x174 JUMPI PUSH4 0xF2FDE38B EQ PUSH2 0xE6 JUMPI CODESIZE PUSH2 0xF JUMP JUMPDEST CALLVALUE PUSH2 0x16F JUMPI PUSH1 0x20 CALLDATASIZE PUSH1 0x3 NOT ADD SLT PUSH2 0x16F JUMPI PUSH2 0xFF PUSH2 0xECA JUMP JUMPDEST PUSH2 0x107 PUSH2 0x1106 JUMP JUMPDEST PUSH1 0x1 PUSH1 0x1 PUSH1 0xA0 SHL SUB AND DUP1 ISZERO PUSH2 0x159 JUMPI PUSH1 0x0 DUP1 SLOAD PUSH1 0x1 PUSH1 0x1 PUSH1 0xA0 SHL SUB NOT DUP2 AND DUP4 OR DUP3 SSTORE PUSH1 0x1 PUSH1 0x1 PUSH1 0xA0 SHL SUB AND SWAP1 PUSH32 0x8BE0079C531659141344CD1FD0A4F28419497F9722A3DAAFE3B4186F6B6457E0 SWAP1 DUP1 LOG3 STOP JUMPDEST PUSH4 0x1E4FBDF7 PUSH1 0xE0 SHL PUSH1 0x0 MSTORE PUSH1 0x0 PUSH1 0x4 MSTORE PUSH1 0x24 PUSH1 0x0 REVERT JUMPDEST PUSH1 0x0 DUP1 REVERT JUMPDEST CALLVALUE PUSH2 0x16F JUMPI PUSH1 0x40 CALLDATASIZE PUSH1 0x3 NOT ADD SLT PUSH2 0x16F JUMPI PUSH2 0x18D PUSH2 0xECA JUMP JUMPDEST PUSH1 0x1 PUSH1 0x1 PUSH1 0xA0 SHL SUB AND PUSH1 0x0 SWAP1 DUP2 MSTORE PUSH1 0x1 PUSH1 0x20 MSTORE PUSH1 0x40 SWAP1 KECCAK256 DUP1 SLOAD PUSH1 0x24 CALLDATALOAD SWAP2 SWAP1 DUP3 LT ISZERO PUSH2 0x16F JUMPI PUSH1 0x60 SWAP2 PUSH2 0x1BE SWAP2 PUSH2 0xF82 JUMP JUMPDEST POP PUSH1 0x1 DUP1 PUSH1 0xA0 SHL SUB DUP2 SLOAD AND SWAP1 PUSH1 0xFF PUSH1 0x2 PUSH1 0x1 DUP4 ADD SLOAD SWAP3 ADD SLOAD AND SWAP1 PUSH1 0x40 MLOAD SWAP3 DUP4 MSTORE PUSH1 0x20 DUP4 ADD MSTORE ISZERO ISZERO PUSH1 0x40 DUP3 ADD MSTORE RETURN JUMPDEST CALLVALUE PUSH2 0x16F JUMPI PUSH1 0x0 CALLDATASIZE PUSH1 0x3 NOT ADD SLT PUSH2 0x16F JUMPI PUSH1 0x20 PUSH1 0x3 SLOAD PUSH1 0x40 MLOAD SWAP1 DUP2 MSTORE RETURN JUMPDEST CALLVALUE PUSH2 0x16F JUMPI PUSH1 0x40 CALLDATASIZE PUSH1 0x3 NOT ADD SLT PUSH2 0x16F JUMPI PUSH2 0x223 PUSH2 0xECA JUMP JUMPDEST PUSH1 0x24 CALLDATALOAD PUSH1 0x2 PUSH32 0x9B779B17422D0DF92223018B32B4D1FA46E071723D6817E2486D003BECC55F00 SLOAD EQ PUSH2 0x73A JUMPI PUSH1 0x2 PUSH32 0x9B779B17422D0DF92223018B32B4D1FA46E071723D6817E2486D003BECC55F00 SSTORE CALLER PUSH1 0x0 MSTORE PUSH1 0x1 PUSH1 0x20 MSTORE PUSH1 0x40 PUSH1 0x0 KECCAK256 SWAP1 DUP2 SLOAD SWAP3 DUP4 ISZERO PUSH2 0x704 JUMPI DUP2 ISZERO PUSH2 0x6D1 JUMPI PUSH1 0x40 MLOAD PUSH4 0x23B872DD PUSH1 0xE0 SHL DUP2 MSTORE CALLER PUSH1 0x4 DUP3 ADD MSTORE ADDRESS PUSH1 0x24 DUP3 ADD MSTORE PUSH1 0x44 DUP2 ADD DUP4 SWAP1 MSTORE PUSH1 0x1 PUSH1 0x1 PUSH1 0xA0 SHL SUB SWAP2 SWAP1 SWAP2 AND SWAP1 PUSH1 0x20 DUP2 PUSH1 0x64 DUP2 PUSH1 0x0 DUP7 GAS CALL DUP1 ISZERO PUSH2 0x5C1 JUMPI PUSH2 0x2E1 SWAP2 PUSH1 0x0 SWAP2 PUSH2 0x6B2 JUMPI JUMPDEST POP PUSH2 0x10C8 JUMP JUMPDEST PUSH2 0x2EA DUP5 PUSH2 0xFEE JUMP JUMPDEST PUSH2 0x2F3 DUP6 PUSH2 0xFEE JUMP JUMPDEST SWAP4 PUSH1 0x3 SLOAD PUSH1 0x0 NOT DUP2 EQ PUSH2 0x656 JUMPI PUSH1 0x1 ADD PUSH1 0x3 SSTORE PUSH2 0x312 DUP5 PUSH1 0x4 SLOAD PUSH2 0x10A3 JUMP JUMPDEST PUSH1 0x4 SSTORE PUSH1 0x0 PUSH1 0x0 NOT DUP8 ADD DUP8 DUP2 GT SWAP1 DUP3 JUMPDEST DUP10 DUP2 LT PUSH2 0x3AA JUMPI DUP9 PUSH32 0x49343D927342553E887F4F418BEDE788D904DDA19262752A88C45153F9E07C77 DUP10 DUP10 PUSH2 0x381 PUSH2 0x372 DUP12 PUSH1 0x40 MLOAD SWAP5 DUP6 SWAP5 DUP6 MSTORE PUSH1 0x20 DUP6 ADD MSTORE PUSH1 0x80 PUSH1 0x40 DUP6 ADD MSTORE PUSH1 0x80 DUP5 ADD SWAP1 PUSH2 0xEE0 JUMP JUMPDEST DUP3 DUP2 SUB PUSH1 0x60 DUP5 ADD MSTORE CALLER SWAP6 PUSH2 0xF1D JUMP JUMPDEST SUB SWAP1 LOG2 PUSH1 0x1 PUSH32 0x9B779B17422D0DF92223018B32B4D1FA46E071723D6817E2486D003BECC55F00 SSTORE STOP JUMPDEST PUSH1 0x0 DUP4 PUSH2 0x69E JUMPI DUP2 DUP4 SUB PUSH2 0x66C JUMPI POP DUP4 DUP9 SUB DUP9 DUP2 GT PUSH2 0x656 JUMPI JUMPDEST PUSH2 0x3CE DUP3 DUP8 PUSH2 0xF82 JUMP JUMPDEST POP SLOAD PUSH1 0x1 PUSH1 0x1 PUSH1 0xA0 SHL SUB AND PUSH2 0x3E3 DUP4 DUP10 PUSH2 0x1020 JUMP JUMPDEST MSTORE DUP1 PUSH2 0x3EF DUP4 DUP13 PUSH2 0x1020 JUMP JUMPDEST MSTORE PUSH1 0xFF PUSH1 0x2 PUSH2 0x3FE DUP5 DUP10 PUSH2 0xF82 JUMP JUMPDEST POP ADD SLOAD AND ISZERO PUSH2 0x5CD JUMPI PUSH2 0x44A PUSH1 0x20 DUP3 PUSH2 0x417 DUP6 DUP11 PUSH2 0xF82 JUMP JUMPDEST POP SLOAD PUSH1 0x40 MLOAD PUSH4 0x95EA7B3 PUSH1 0xE0 SHL DUP2 MSTORE PUSH1 0x1 PUSH1 0x1 PUSH1 0xA0 SHL SUB SWAP1 SWAP2 AND PUSH1 0x4 DUP3 ADD MSTORE PUSH1 0x24 DUP2 ADD SWAP2 SWAP1 SWAP2 MSTORE SWAP2 DUP3 SWAP1 DUP2 SWAP1 PUSH1 0x44 DUP3 ADD SWAP1 JUMP JUMPDEST SUB DUP2 PUSH1 0x0 DUP14 GAS CALL SWAP1 DUP2 ISZERO PUSH2 0x5C1 JUMPI PUSH1 0x0 SWAP2 PUSH2 0x593 JUMPI JUMPDEST POP ISZERO PUSH2 0x557 JUMPI PUSH1 0x0 DUP1 SWAP2 PUSH2 0x474 DUP5 DUP10 PUSH2 0xF82 JUMP JUMPDEST POP SLOAD PUSH1 0x40 MLOAD PUSH4 0xB6B55F25 PUSH1 0xE0 SHL PUSH1 0x20 DUP3 ADD SWAP1 DUP2 MSTORE CALLER PUSH1 0x24 DUP4 ADD MSTORE PUSH1 0x44 DUP1 DUP4 ADD SWAP5 SWAP1 SWAP5 MSTORE SWAP3 DUP2 MSTORE PUSH1 0x1 PUSH1 0x1 PUSH1 0xA0 SHL SUB SWAP1 SWAP2 AND SWAP2 SWAP1 DUP4 SWAP1 PUSH2 0x4B4 PUSH1 0x64 DUP3 PUSH2 0xFB4 JUMP JUMPDEST MLOAD SWAP3 GAS CALL RETURNDATASIZE ISZERO PUSH2 0x552 JUMPI RETURNDATASIZE PUSH8 0xFFFFFFFFFFFFFFFF DUP2 GT PUSH2 0x53C JUMPI PUSH1 0x40 MLOAD SWAP1 PUSH2 0x4E6 PUSH1 0x1F DUP3 ADD PUSH1 0x1F NOT AND PUSH1 0x20 ADD DUP4 PUSH2 0xFB4 JUMP JUMPDEST DUP2 MSTORE PUSH1 0x0 PUSH1 0x20 RETURNDATASIZE SWAP3 ADD RETURNDATACOPY JUMPDEST ISZERO PUSH2 0x500 JUMPI PUSH1 0x1 SWAP1 JUMPDEST ADD PUSH2 0x322 JUMP JUMPDEST PUSH1 0x40 MLOAD PUSH3 0x461BCD PUSH1 0xE5 SHL DUP2 MSTORE PUSH1 0x20 PUSH1 0x4 DUP3 ADD MSTORE PUSH1 0x14 PUSH1 0x24 DUP3 ADD MSTORE PUSH20 0x15985D5B1D0819195C1BDCDA5D0819985A5B1959 PUSH1 0x62 SHL PUSH1 0x44 DUP3 ADD MSTORE PUSH1 0x64 SWAP1 REVERT JUMPDEST PUSH4 0x4E487B71 PUSH1 0xE0 SHL PUSH1 0x0 MSTORE PUSH1 0x41 PUSH1 0x4 MSTORE PUSH1 0x24 PUSH1 0x0 REVERT JUMPDEST PUSH2 0x4F1 JUMP JUMPDEST PUSH1 0x40 MLOAD PUSH3 0x461BCD PUSH1 0xE5 SHL DUP2 MSTORE PUSH1 0x20 PUSH1 0x4 DUP3 ADD MSTORE PUSH1 0x14 PUSH1 0x24 DUP3 ADD MSTORE PUSH20 0x15985D5B1D08185C1C1C9BDD994819985A5B1959 PUSH1 0x62 SHL PUSH1 0x44 DUP3 ADD MSTORE PUSH1 0x64 SWAP1 REVERT JUMPDEST PUSH2 0x5B4 SWAP2 POP PUSH1 0x20 RETURNDATASIZE DUP2 GT PUSH2 0x5BA JUMPI JUMPDEST PUSH2 0x5AC DUP2 DUP4 PUSH2 0xFB4 JUMP JUMPDEST DUP2 ADD SWAP1 PUSH2 0x10B0 JUMP JUMPDEST DUP13 PUSH2 0x460 JUMP JUMPDEST POP RETURNDATASIZE PUSH2 0x5A2 JUMP JUMPDEST PUSH1 0x40 MLOAD RETURNDATASIZE PUSH1 0x0 DUP3 RETURNDATACOPY RETURNDATASIZE SWAP1 REVERT JUMPDEST SWAP1 PUSH1 0x20 PUSH2 0x611 SWAP3 PUSH2 0x5DE DUP4 DUP10 PUSH2 0xF82 JUMP JUMPDEST POP SLOAD PUSH1 0x40 MLOAD PUSH4 0xA9059CBB PUSH1 0xE0 SHL DUP2 MSTORE PUSH1 0x1 PUSH1 0x1 PUSH1 0xA0 SHL SUB SWAP1 SWAP2 AND PUSH1 0x4 DUP3 ADD MSTORE PUSH1 0x24 DUP2 ADD SWAP2 SWAP1 SWAP2 MSTORE SWAP3 DUP4 SWAP1 DUP2 SWAP1 PUSH1 0x44 DUP3 ADD SWAP1 JUMP JUMPDEST SUB DUP2 PUSH1 0x0 DUP13 GAS CALL SWAP2 DUP3 ISZERO PUSH2 0x5C1 JUMPI PUSH1 0x1 SWAP3 PUSH2 0x633 SWAP2 PUSH1 0x0 SWAP2 PUSH2 0x638 JUMPI POP PUSH2 0x10C8 JUMP JUMPDEST PUSH2 0x4FA JUMP JUMPDEST PUSH2 0x650 SWAP2 POP PUSH1 0x20 RETURNDATASIZE DUP2 GT PUSH2 0x5BA JUMPI PUSH2 0x5AC DUP2 DUP4 PUSH2 0xFB4 JUMP JUMPDEST DUP14 PUSH2 0x2DB JUMP JUMPDEST PUSH4 0x4E487B71 PUSH1 0xE0 SHL PUSH1 0x0 MSTORE PUSH1 0x11 PUSH1 0x4 MSTORE PUSH1 0x24 PUSH1 0x0 REVERT JUMPDEST PUSH1 0x1 PUSH2 0x678 DUP4 DUP9 PUSH2 0xF82 JUMP JUMPDEST POP ADD SLOAD SWAP1 DUP2 DUP11 MUL SWAP2 DUP11 DUP4 DIV SUB PUSH2 0x69E JUMPI POP PUSH2 0x2710 PUSH2 0x698 SWAP2 DIV DUP1 SWAP6 PUSH2 0x10A3 JUMP JUMPDEST SWAP4 PUSH2 0x3C4 JUMP JUMPDEST PUSH4 0x4E487B71 PUSH1 0xE0 SHL DUP2 MSTORE PUSH1 0x11 PUSH1 0x4 MSTORE PUSH1 0x24 SWAP1 REVERT JUMPDEST PUSH2 0x6CB SWAP2 POP PUSH1 0x20 RETURNDATASIZE PUSH1 0x20 GT PUSH2 0x5BA JUMPI PUSH2 0x5AC DUP2 DUP4 PUSH2 0xFB4 JUMP JUMPDEST DUP7 PUSH2 0x2DB JUMP JUMPDEST PUSH1 0x40 MLOAD PUSH3 0x461BCD PUSH1 0xE5 SHL DUP2 MSTORE PUSH1 0x20 PUSH1 0x4 DUP3 ADD MSTORE PUSH1 0xB PUSH1 0x24 DUP3 ADD MSTORE PUSH11 0x16995C9BC8185B5BDD5B9D PUSH1 0xAA SHL PUSH1 0x44 DUP3 ADD MSTORE PUSH1 0x64 SWAP1 REVERT JUMPDEST PUSH1 0x40 MLOAD PUSH3 0x461BCD PUSH1 0xE5 SHL DUP2 MSTORE PUSH1 0x20 PUSH1 0x4 DUP3 ADD MSTORE PUSH1 0xE PUSH1 0x24 DUP3 ADD MSTORE PUSH14 0x4E6F2073706C69742072756C6573 PUSH1 0x90 SHL PUSH1 0x44 DUP3 ADD MSTORE PUSH1 0x64 SWAP1 REVERT JUMPDEST PUSH4 0x3EE5AEB5 PUSH1 0xE0 SHL PUSH1 0x0 MSTORE PUSH1 0x4 PUSH1 0x0 REVERT JUMPDEST CALLVALUE PUSH2 0x16F JUMPI PUSH1 0x0 CALLDATASIZE PUSH1 0x3 NOT ADD SLT PUSH2 0x16F JUMPI PUSH1 0x0 SLOAD PUSH1 0x40 MLOAD PUSH1 0x1 PUSH1 0x1 PUSH1 0xA0 SHL SUB SWAP1 SWAP2 AND DUP2 MSTORE PUSH1 0x20 SWAP1 RETURN JUMPDEST CALLVALUE PUSH2 0x16F JUMPI PUSH1 0x40 CALLDATASIZE PUSH1 0x3 NOT ADD SLT PUSH2 0x16F JUMPI PUSH2 0x78D PUSH2 0xECA JUMP JUMPDEST PUSH1 0x24 CALLDATALOAD SWAP1 DUP2 ISZERO ISZERO SWAP1 DUP2 DUP4 SUB PUSH2 0x16F JUMPI PUSH32 0x21FB39C4483ACEA5A0C46564E54A29118EA92EF55AC3EA30289ACA6967DB5781 SWAP2 PUSH2 0x7F3 PUSH1 0x20 SWAP3 PUSH2 0x7CC PUSH2 0x1106 JUMP JUMPDEST PUSH1 0x1 DUP1 PUSH1 0xA0 SHL SUB AND SWAP5 DUP6 PUSH1 0x0 MSTORE PUSH1 0x2 DUP5 MSTORE PUSH1 0x40 PUSH1 0x0 KECCAK256 SWAP1 PUSH1 0xFF DUP1 NOT DUP4 SLOAD AND SWAP2 ISZERO ISZERO AND OR SWAP1 SSTORE JUMP JUMPDEST PUSH1 0x40 MLOAD SWAP1 DUP2 MSTORE LOG2 STOP JUMPDEST CALLVALUE PUSH2 0x16F JUMPI PUSH1 0x60 CALLDATASIZE PUSH1 0x3 NOT ADD SLT PUSH2 0x16F JUMPI PUSH1 0x4 CALLDATALOAD PUSH8 0xFFFFFFFFFFFFFFFF DUP2 GT PUSH2 0x16F JUMPI PUSH2 0x82D SWAP1 CALLDATASIZE SWAP1 PUSH1 0x4 ADD PUSH2 0xF51 JUMP JUMPDEST PUSH1 0x24 CALLDATALOAD PUSH8 0xFFFFFFFFFFFFFFFF DUP2 GT PUSH2 0x16F JUMPI PUSH2 0x84D SWAP1 CALLDATASIZE SWAP1 PUSH1 0x4 ADD PUSH2 0xF51 JUMP JUMPDEST PUSH1 0x44 CALLDATALOAD PUSH8 0xFFFFFFFFFFFFFFFF DUP2 GT PUSH2 0x16F JUMPI PUSH2 0x86D SWAP1 CALLDATASIZE SWAP1 PUSH1 0x4 ADD PUSH2 0xF51 JUMP JUMPDEST SWAP3 SWAP1 SWAP5 PUSH2 0x87B DUP4 DUP7 EQ PUSH2 0x1034 JUMP JUMPDEST PUSH2 0x886 DUP5 DUP7 EQ PUSH2 0x1034 JUMP JUMPDEST DUP5 ISZERO PUSH2 0xC99 JUMPI PUSH1 0xA DUP6 GT PUSH2 0xC62 JUMPI PUSH1 0x0 DUP1 JUMPDEST DUP7 DUP3 LT PUSH2 0xB29 JUMPI PUSH2 0x2710 SWAP2 POP SUB PUSH2 0xAF1 JUMPI CALLER PUSH1 0x0 MSTORE PUSH1 0x1 PUSH1 0x20 MSTORE PUSH1 0x40 PUSH1 0x0 KECCAK256 DUP1 SLOAD SWAP1 PUSH1 0x0 DUP2 SSTORE DUP2 PUSH2 0xAB3 JUMPI JUMPDEST POP POP PUSH1 0x0 JUMPDEST DUP6 DUP2 LT PUSH2 0x9AF JUMPI POP PUSH1 0x40 MLOAD SWAP5 DUP1 PUSH1 0x60 DUP8 ADD PUSH1 0x60 DUP9 MSTORE MSTORE PUSH1 0x80 DUP7 ADD SWAP2 SWAP1 PUSH1 0x0 SWAP1 JUMPDEST DUP1 DUP3 LT PUSH2 0x985 JUMPI POP POP POP DUP5 DUP2 SUB PUSH1 0x20 DUP7 ADD MSTORE DUP3 DUP2 MSTORE PUSH1 0x1 PUSH1 0x1 PUSH1 0xFB SHL SUB DUP4 GT PUSH2 0x16F JUMPI PUSH1 0x40 SWAP3 PUSH1 0x5 SHL DUP1 SWAP3 PUSH1 0x20 DUP4 ADD CALLDATACOPY ADD DUP3 PUSH1 0x20 DUP3 ADD PUSH1 0x20 DUP7 DUP5 SUB ADD DUP5 DUP8 ADD MSTORE MSTORE ADD SWAP3 SWAP1 PUSH1 0x0 SWAP1 JUMPDEST DUP1 DUP3 LT PUSH2 0x961 JUMPI CALLER PUSH32 0x1153A65CAADC1A1B7C72682E8BD65E8A90E813115A94050C9EC47A8B7980111F DUP6 DUP8 SUB DUP7 LOG2 STOP JUMPDEST SWAP1 SWAP2 SWAP4 DUP5 CALLDATALOAD SWAP1 DUP2 ISZERO ISZERO DUP1 SWAP3 SUB PUSH2 0x16F JUMPI PUSH1 0x20 DUP2 PUSH1 0x1 SWAP4 DUP3 SWAP4 MSTORE ADD SWAP6 ADD SWAP3 ADD SWAP1 PUSH2 0x931 JUMP JUMPDEST SWAP1 SWAP2 SWAP3 DUP4 CALLDATALOAD SWAP1 PUSH1 0x1 DUP1 PUSH1 0xA0 SHL SUB DUP3 AND DUP1 SWAP3 SUB PUSH2 0x16F JUMPI PUSH1 0x20 DUP2 PUSH1 0x1 SWAP4 DUP3 SWAP4 MSTORE ADD SWAP5 ADD SWAP3 ADD SWAP1 PUSH2 0x8E9 JUMP JUMPDEST CALLER PUSH1 0x0 MSTORE PUSH1 0x1 PUSH1 0x20 MSTORE PUSH1 0x40 PUSH1 0x0 KECCAK256 SWAP1 PUSH2 0x9D1 PUSH2 0x9CC DUP3 DUP10 DUP7 PUSH2 0x1072 JUMP JUMPDEST PUSH2 0x1082 JUMP JUMPDEST PUSH2 0x9DC DUP3 DUP8 DUP8 PUSH2 0x1072 JUMP JUMPDEST CALLDATALOAD SWAP1 PUSH2 0x9F1 PUSH2 0x9EC DUP5 DUP11 DUP14 PUSH2 0x1072 JUMP JUMPDEST PUSH2 0x1096 JUMP JUMPDEST SWAP4 PUSH1 0x40 MLOAD SWAP2 PUSH1 0x60 DUP4 ADD DUP4 DUP2 LT PUSH8 0xFFFFFFFFFFFFFFFF DUP3 GT OR PUSH2 0x53C JUMPI PUSH1 0x40 MSTORE PUSH1 0x1 DUP1 PUSH1 0xA0 SHL SUB AND DUP3 MSTORE PUSH1 0x20 DUP3 ADD SWAP3 DUP4 MSTORE PUSH1 0x40 DUP3 ADD SWAP5 ISZERO ISZERO DUP6 MSTORE DUP1 SLOAD PUSH9 0x10000000000000000 DUP2 LT ISZERO PUSH2 0x53C JUMPI PUSH2 0xA4C SWAP2 PUSH1 0x1 DUP3 ADD DUP2 SSTORE PUSH2 0xF82 JUMP JUMPDEST SWAP2 SWAP1 SWAP2 PUSH2 0xA9D JUMPI PUSH1 0x1 SWAP5 PUSH2 0xA97 SWAP4 PUSH1 0x2 SWAP3 DUP8 DUP1 PUSH1 0xA0 SHL SUB SWAP1 MLOAD AND PUSH12 0xFFFFFFFFFFFFFFFFFFFFFFFF PUSH1 0xA0 SHL DUP6 SLOAD AND OR DUP5 SSTORE MLOAD DUP7 DUP5 ADD SSTORE MLOAD ISZERO ISZERO SWAP2 ADD SWAP1 PUSH1 0xFF DUP1 NOT DUP4 SLOAD AND SWAP2 ISZERO ISZERO AND OR SWAP1 SSTORE JUMP JUMPDEST ADD PUSH2 0x8C9 JUMP JUMPDEST PUSH4 0x4E487B71 PUSH1 0xE0 SHL PUSH1 0x0 MSTORE PUSH1 0x0 PUSH1 0x4 MSTORE PUSH1 0x24 PUSH1 0x0 REVERT JUMPDEST DUP2 PUSH1 0x3 MUL SWAP2 PUSH1 0x3 DUP4 DIV SUB PUSH2 0x656 JUMPI PUSH1 0x0 MSTORE PUSH1 0x20 PUSH1 0x0 KECCAK256 SWAP1 DUP2 ADD SWAP1 JUMPDEST DUP2 DUP2 LT ISZERO PUSH2 0x8C4 JUMPI DUP1 PUSH1 0x0 PUSH1 0x3 SWAP3 SSTORE PUSH1 0x0 PUSH1 0x1 DUP3 ADD SSTORE PUSH1 0x0 PUSH1 0x2 DUP3 ADD SSTORE ADD PUSH2 0xACE JUMP JUMPDEST PUSH1 0x40 MLOAD PUSH3 0x461BCD PUSH1 0xE5 SHL DUP2 MSTORE PUSH1 0x20 PUSH1 0x4 DUP3 ADD MSTORE PUSH1 0x10 PUSH1 0x24 DUP3 ADD MSTORE PUSH16 0x4D7573742073756D20746F2031303025 PUSH1 0x80 SHL PUSH1 0x44 DUP3 ADD MSTORE PUSH1 0x64 SWAP1 REVERT JUMPDEST PUSH2 0xB34 DUP3 DUP7 DUP7 PUSH2 0x1072 JUMP JUMPDEST CALLDATALOAD ISZERO PUSH2 0xC29 JUMPI PUSH1 0x1 PUSH1 0x1 PUSH1 0xA0 SHL SUB PUSH2 0xB50 PUSH2 0x9CC DUP5 DUP11 DUP8 PUSH2 0x1072 JUMP JUMPDEST AND ISZERO PUSH2 0xBF0 JUMPI PUSH2 0xB64 PUSH2 0x9EC DUP4 DUP9 DUP12 PUSH2 0x1072 JUMP JUMPDEST PUSH2 0xB89 JUMPI JUMPDEST PUSH2 0xB81 PUSH1 0x1 SWAP2 PUSH2 0xB7A DUP5 DUP9 DUP9 PUSH2 0x1072 JUMP JUMPDEST CALLDATALOAD SWAP1 PUSH2 0x10A3 JUMP JUMPDEST SWAP2 ADD SWAP1 PUSH2 0x898 JUMP JUMPDEST PUSH1 0x1 PUSH1 0x1 PUSH1 0xA0 SHL SUB PUSH2 0xB9F PUSH2 0x9CC DUP5 DUP11 DUP8 PUSH2 0x1072 JUMP JUMPDEST AND PUSH1 0x0 MSTORE PUSH1 0x2 PUSH1 0x20 MSTORE PUSH1 0xFF PUSH1 0x40 PUSH1 0x0 KECCAK256 SLOAD AND PUSH2 0xB69 JUMPI PUSH1 0x40 MLOAD PUSH3 0x461BCD PUSH1 0xE5 SHL DUP2 MSTORE PUSH1 0x20 PUSH1 0x4 DUP3 ADD MSTORE PUSH1 0x13 PUSH1 0x24 DUP3 ADD MSTORE PUSH19 0x2737BA1030903B30BAB63A1030B230B83A32B9 PUSH1 0x69 SHL PUSH1 0x44 DUP3 ADD MSTORE PUSH1 0x64 SWAP1 REVERT JUMPDEST PUSH1 0x40 MLOAD PUSH3 0x461BCD PUSH1 0xE5 SHL DUP2 MSTORE PUSH1 0x20 PUSH1 0x4 DUP3 ADD MSTORE PUSH1 0x11 PUSH1 0x24 DUP3 ADD MSTORE PUSH17 0x125B9D985B1A59081C9958DA5C1A595B9D PUSH1 0x7A SHL PUSH1 0x44 DUP3 ADD MSTORE PUSH1 0x64 SWAP1 REVERT JUMPDEST PUSH1 0x40 MLOAD PUSH3 0x461BCD PUSH1 0xE5 SHL DUP2 MSTORE PUSH1 0x20 PUSH1 0x4 DUP3 ADD MSTORE PUSH1 0x11 PUSH1 0x24 DUP3 ADD MSTORE PUSH17 0x5A65726F20626173697320706F696E7473 PUSH1 0x78 SHL PUSH1 0x44 DUP3 ADD MSTORE PUSH1 0x64 SWAP1 REVERT JUMPDEST PUSH1 0x40 MLOAD PUSH3 0x461BCD PUSH1 0xE5 SHL DUP2 MSTORE PUSH1 0x20 PUSH1 0x4 DUP3 ADD MSTORE PUSH1 0xF PUSH1 0x24 DUP3 ADD MSTORE PUSH15 0x546F6F206D616E792073706C697473 PUSH1 0x88 SHL PUSH1 0x44 DUP3 ADD MSTORE PUSH1 0x64 SWAP1 REVERT JUMPDEST PUSH1 0x40 MLOAD PUSH3 0x461BCD PUSH1 0xE5 SHL DUP2 MSTORE PUSH1 0x20 PUSH1 0x4 DUP3 ADD MSTORE PUSH1 0xC PUSH1 0x24 DUP3 ADD MSTORE PUSH12 0x456D7074792073706C697473 PUSH1 0xA0 SHL PUSH1 0x44 DUP3 ADD MSTORE PUSH1 0x64 SWAP1 REVERT JUMPDEST CALLVALUE PUSH2 0x16F JUMPI PUSH1 0x0 CALLDATASIZE PUSH1 0x3 NOT ADD SLT PUSH2 0x16F JUMPI PUSH2 0xCE6 PUSH2 0x1106 JUMP JUMPDEST PUSH1 0x0 DUP1 SLOAD PUSH1 0x1 PUSH1 0x1 PUSH1 0xA0 SHL SUB NOT DUP2 AND DUP3 SSTORE PUSH1 0x1 PUSH1 0x1 PUSH1 0xA0 SHL SUB AND PUSH32 0x8BE0079C531659141344CD1FD0A4F28419497F9722A3DAAFE3B4186F6B6457E0 DUP3 DUP1 LOG3 STOP JUMPDEST CALLVALUE PUSH2 0x16F JUMPI PUSH1 0x0 CALLDATASIZE PUSH1 0x3 NOT ADD SLT PUSH2 0x16F JUMPI PUSH1 0x20 PUSH1 0x4 SLOAD PUSH1 0x40 MLOAD SWAP1 DUP2 MSTORE RETURN JUMPDEST CALLVALUE PUSH2 0x16F JUMPI PUSH1 0x20 CALLDATASIZE PUSH1 0x3 NOT ADD SLT PUSH2 0x16F JUMPI PUSH1 0x1 PUSH1 0x1 PUSH1 0xA0 SHL SUB PUSH2 0xD65 PUSH2 0xECA JUMP JUMPDEST AND PUSH1 0x0 MSTORE PUSH1 0x1 PUSH1 0x20 MSTORE PUSH1 0x40 PUSH1 0x0 KECCAK256 DUP1 SLOAD SWAP1 PUSH2 0xD7F DUP3 PUSH2 0xFEE JUMP JUMPDEST SWAP2 PUSH2 0xD89 DUP2 PUSH2 0xFEE JUMP JUMPDEST PUSH2 0xD92 DUP3 PUSH2 0xFD6 JUMP JUMPDEST SWAP2 PUSH2 0xDA0 PUSH1 0x40 MLOAD SWAP4 DUP5 PUSH2 0xFB4 JUMP JUMPDEST DUP1 DUP4 MSTORE PUSH2 0xDAC DUP2 PUSH2 0xFD6 JUMP JUMPDEST PUSH1 0x20 DUP5 ADD SWAP5 SWAP1 PUSH1 0x1F NOT ADD CALLDATASIZE DUP7 CALLDATACOPY PUSH1 0x0 JUMPDEST DUP3 DUP2 LT PUSH2 0xE2D JUMPI PUSH2 0xDE3 DUP8 DUP8 DUP8 PUSH1 0x20 PUSH2 0xDF0 DUP10 PUSH1 0x40 MLOAD SWAP7 DUP8 SWAP7 PUSH1 0x60 DUP9 MSTORE PUSH1 0x60 DUP9 ADD SWAP1 PUSH2 0xEE0 JUMP JUMPDEST SWAP1 DUP7 DUP3 SUB DUP5 DUP9 ADD MSTORE PUSH2 0xF1D JUMP JUMPDEST SWAP2 DUP5 DUP4 SUB PUSH1 0x40 DUP7 ADD MSTORE MLOAD SWAP2 DUP3 DUP2 MSTORE ADD SWAP2 SWAP1 PUSH1 0x0 JUMPDEST DUP2 DUP2 LT PUSH2 0xE12 JUMPI POP POP POP SUB SWAP1 RETURN JUMPDEST DUP3 MLOAD ISZERO ISZERO DUP5 MSTORE DUP6 SWAP5 POP PUSH1 0x20 SWAP4 DUP5 ADD SWAP4 SWAP1 SWAP3 ADD SWAP2 PUSH1 0x1 ADD PUSH2 0xE04 JUMP JUMPDEST DUP1 PUSH2 0xE3A PUSH1 0x1 SWAP3 DUP5 PUSH2 0xF82 JUMP JUMPDEST POP DUP3 DUP1 PUSH1 0xA0 SHL SUB SWAP1 SLOAD AND PUSH2 0xE4E DUP3 DUP11 PUSH2 0x1020 JUMP JUMPDEST MSTORE DUP2 PUSH2 0xE5A DUP3 DUP6 PUSH2 0xF82 JUMP JUMPDEST POP ADD SLOAD PUSH2 0xE67 DUP3 DUP8 PUSH2 0x1020 JUMP JUMPDEST MSTORE PUSH1 0xFF PUSH1 0x2 PUSH2 0xE76 DUP4 DUP7 PUSH2 0xF82 JUMP JUMPDEST POP ADD SLOAD AND PUSH2 0xE84 DUP3 DUP9 PUSH2 0x1020 JUMP JUMPDEST SWAP1 ISZERO ISZERO SWAP1 MSTORE ADD PUSH2 0xDBC JUMP JUMPDEST CALLVALUE PUSH2 0x16F JUMPI PUSH1 0x20 CALLDATASIZE PUSH1 0x3 NOT ADD SLT PUSH2 0x16F JUMPI PUSH1 0x20 SWAP1 PUSH1 0x1 PUSH1 0x1 PUSH1 0xA0 SHL SUB PUSH2 0xEB3 PUSH2 0xECA JUMP JUMPDEST AND PUSH1 0x0 MSTORE PUSH1 0x2 DUP3 MSTORE PUSH1 0xFF PUSH1 0x40 PUSH1 0x0 KECCAK256 SLOAD AND ISZERO ISZERO DUP2 MSTORE RETURN JUMPDEST PUSH1 0x4 CALLDATALOAD SWAP1 PUSH1 0x1 PUSH1 0x1 PUSH1 0xA0 SHL SUB DUP3 AND DUP3 SUB PUSH2 0x16F JUMPI JUMP JUMPDEST SWAP1 PUSH1 0x20 DUP1 DUP4 MLOAD SWAP3 DUP4 DUP2 MSTORE ADD SWAP3 ADD SWAP1 PUSH1 0x0 JUMPDEST DUP2 DUP2 LT PUSH2 0xEFE JUMPI POP POP POP SWAP1 JUMP JUMPDEST DUP3 MLOAD PUSH1 0x1 PUSH1 0x1 PUSH1 0xA0 SHL SUB AND DUP5 MSTORE PUSH1 0x20 SWAP4 DUP5 ADD SWAP4 SWAP1 SWAP3 ADD SWAP2 PUSH1 0x1 ADD PUSH2 0xEF1 JUMP JUMPDEST SWAP1 PUSH1 0x20 DUP1 DUP4 MLOAD SWAP3 DUP4 DUP2 MSTORE ADD SWAP3 ADD SWAP1 PUSH1 0x0 JUMPDEST DUP2 DUP2 LT PUSH2 0xF3B JUMPI POP POP POP SWAP1 JUMP JUMPDEST DUP3 MLOAD DUP5 MSTORE PUSH1 0x20 SWAP4 DUP5 ADD SWAP4 SWAP1 SWAP3 ADD SWAP2 PUSH1 0x1 ADD PUSH2 0xF2E JUMP JUMPDEST SWAP2 DUP2 PUSH1 0x1F DUP5 ADD SLT ISZERO PUSH2 0x16F JUMPI DUP3 CALLDATALOAD SWAP2 PUSH8 0xFFFFFFFFFFFFFFFF DUP4 GT PUSH2 0x16F JUMPI PUSH1 0x20 DUP1 DUP6 ADD SWAP5 DUP5 PUSH1 0x5 SHL ADD ADD GT PUSH2 0x16F JUMPI JUMP JUMPDEST DUP1 SLOAD DUP3 LT ISZERO PUSH2 0xF9E JUMPI PUSH1 0x0 MSTORE PUSH1 0x3 PUSH1 0x20 PUSH1 0x0 KECCAK256 SWAP2 MUL ADD SWAP1 PUSH1 0x0 SWAP1 JUMP JUMPDEST PUSH4 0x4E487B71 PUSH1 0xE0 SHL PUSH1 0x0 MSTORE PUSH1 0x32 PUSH1 0x4 MSTORE PUSH1 0x24 PUSH1 0x0 REVERT JUMPDEST SWAP1 PUSH1 0x1F DUP1 NOT SWAP2 ADD AND DUP2 ADD SWAP1 DUP2 LT PUSH8 0xFFFFFFFFFFFFFFFF DUP3 GT OR PUSH2 0x53C JUMPI PUSH1 0x40 MSTORE JUMP JUMPDEST PUSH8 0xFFFFFFFFFFFFFFFF DUP2 GT PUSH2 0x53C JUMPI PUSH1 0x5 SHL PUSH1 0x20 ADD SWAP1 JUMP JUMPDEST SWAP1 PUSH2 0xFF8 DUP3 PUSH2 0xFD6 JUMP JUMPDEST PUSH2 0x1005 PUSH1 0x40 MLOAD SWAP2 DUP3 PUSH2 0xFB4 JUMP JUMPDEST DUP3 DUP2 MSTORE DUP1 SWAP3 PUSH2 0x1016 PUSH1 0x1F NOT SWAP2 PUSH2 0xFD6 JUMP JUMPDEST ADD SWAP1 PUSH1 0x20 CALLDATASIZE SWAP2 ADD CALLDATACOPY JUMP JUMPDEST DUP1 MLOAD DUP3 LT ISZERO PUSH2 0xF9E JUMPI PUSH1 0x20 SWAP2 PUSH1 0x5 SHL ADD ADD SWAP1 JUMP JUMPDEST ISZERO PUSH2 0x103B JUMPI JUMP JUMPDEST PUSH1 0x40 MLOAD PUSH3 0x461BCD PUSH1 0xE5 SHL DUP2 MSTORE PUSH1 0x20 PUSH1 0x4 DUP3 ADD MSTORE PUSH1 0xF PUSH1 0x24 DUP3 ADD MSTORE PUSH15 0x98CADCCEE8D040DAD2E6DAC2E8C6D PUSH1 0x8B SHL PUSH1 0x44 DUP3 ADD MSTORE PUSH1 0x64 SWAP1 REVERT JUMPDEST SWAP2 SWAP1 DUP2 LT ISZERO PUSH2 0xF9E JUMPI PUSH1 0x5 SHL ADD SWAP1 JUMP JUMPDEST CALLDATALOAD PUSH1 0x1 PUSH1 0x1 PUSH1 0xA0 SHL SUB DUP2 AND DUP2 SUB PUSH2 0x16F JUMPI SWAP1 JUMP JUMPDEST CALLDATALOAD DUP1 ISZERO ISZERO DUP2 SUB PUSH2 0x16F JUMPI SWAP1 JUMP JUMPDEST SWAP2 SWAP1 DUP3 ADD DUP1 SWAP3 GT PUSH2 0x656 JUMPI JUMP JUMPDEST SWAP1 DUP2 PUSH1 0x20 SWAP2 SUB SLT PUSH2 0x16F JUMPI MLOAD DUP1 ISZERO ISZERO DUP2 SUB PUSH2 0x16F JUMPI SWAP1 JUMP JUMPDEST ISZERO PUSH2 0x10CF JUMPI JUMP JUMPDEST PUSH1 0x40 MLOAD PUSH3 0x461BCD PUSH1 0xE5 SHL DUP2 MSTORE PUSH1 0x20 PUSH1 0x4 DUP3 ADD MSTORE PUSH1 0xF PUSH1 0x24 DUP3 ADD MSTORE PUSH15 0x151C985B9CD9995C8819985A5B1959 PUSH1 0x8A SHL PUSH1 0x44 DUP3 ADD MSTORE PUSH1 0x64 SWAP1 REVERT JUMPDEST PUSH1 0x0 SLOAD PUSH1 0x1 PUSH1 0x1 PUSH1 0xA0 SHL SUB AND CALLER SUB PUSH2 0x111A JUMPI JUMP JUMPDEST PUSH4 0x118CDAA7 PUSH1 0xE0 SHL PUSH1 0x0 MSTORE CALLER PUSH1 0x4 MSTORE PUSH1 0x24 PUSH1 0x0 REVERT INVALID LOG2 PUSH5 0x6970667358 0x22 SLT KECCAK256 PUSH27 0x213F07873D12834F2EBD4B1BB72061654D3E9DAA66471AA66176B0 0xC9 0xB8 PUSH11 0x3164736F6C634300081A00 CALLER "},"methodIdentifiers":{"getSplitRules(address)":"555feb09","owner()":"8da5cb5b","renounceOwnership()":"715018a6","routePayment(address,uint256)":"ab3b1675","setSplitRules(address[],uint256[],bool[])":"756513e4","setVaultAdapter(address,bool)":"77bb68f1","totalTransactions()":"b9a60038","totalVolume()":"5f81a57c","transferOwnership(address)":"f2fde38b","userSplits(address,uint256)":"ca5d6986","vaultAdapters(address)":"4adde6e6"}}}}}