{"contracts/AutoSplitRouter.sol":{"AutoSplitRouter":{"abi":[{"inputs":[],"stateMutability":"nonpayable","type":"constructor"},{"inputs":[{"internalType":"address","name":"owner","type":"address"}],"name":"OwnableInvalidOwner","type":"error"},{"inputs":[{"internalType":"address","name":"account","type":"address"}],"name":"OwnableUnauthorizedAccount","type":"error"},{"inputs":[],"name":"ReentrancyGuardReentrantCall","type":"error"},{"anonymous":false,"inputs":[{"indexed":true,"internalType":"address","name":"previousOwner","type":"address"},{"indexed":true,"internalType":"address","name":"newOwner","type":"address"}],"name":"OwnershipTransferred","type":"event"},{"anonymous":false,"inputs":[{"indexed":true,"internalType":"address","name":"sender","type":"address"},{"indexed":false,"internalType":"address","name":"token","type":"address"},{"indexed":false,"internalType":"uint256","name":"amount","type":"uint256"},{"indexed":false,"internalType":"address[]","name":"recipients","type":"address[]"},{"indexed":false,"internalType":"uint256[]","name":"amounts","type":"uint256[]"}],"name":"PaymentRouted","type":"event"},{"anonymous":false,"inputs":[{"indexed":true,"internalType":"address","name":"user","type":"address"},{"indexed":false,"internalType":"address[]","name":"recipients","type":"address[]"},{"indexed":false,"internalType":"uint256[]","name":"basisPoints","type":"uint256[]"},{"indexed":false,"internalType":"bool[]","name":"isVault","type":"bool[]"}],"name":"SplitRuleUpdated","type":"event"},{"anonymous":false,"inputs":[{"indexed":true,"internalType":"address","name":"vault","type":"address"},{"indexed":false,"internalType":"bool","name":"enabled","type":"bool"}],"name":"VaultAdapterUpdated","type":"event"},{"inputs":[{"internalType":"address","name":"user","type":"address"}],"name":"getSplitRules","outputs":[{"internalType":"address[]","name":"recipients","type":"address[]"},{"internalType":"uint256[]","name":"basisPoints","type":"uint256[]"},{"internalType":"bool[]","name":"isVault","type":"bool[]"}],"stateMutability":"view","type":"function"},{"inputs":[],"name":"owner","outputs":[{"internalType":"address","name":"","type":"address"}],"stateMutability":"view","type":"function"},{"inputs":[],"name":"renounceOwnership","outputs":[],"stateMutability":"nonpayable","type":"function"},{"inputs":[{"internalType":"address","name":"token","type":"address"},{"internalType":"uint256","name":"amount","type":"uint256"}],"name":"routePayment","outputs":[],"stateMutability":"payable","type":"function"},{"inputs":[{"internalType":"address[]","name":"recipients","type":"address[]"},{"internalType":"uint256[]","name":"basisPoints","type":"uint256[]"},{"internalType":"bool[]","name":"isVault","type":"bool[]"}],"name":"setSplitRules","outputs":[],"stateMutability":"nonpayable","type":"function"},{"inputs":[{"internalType":"address","name":"vault","type":"address"},{"internalType":"bool","name":"enabled","type":"bool"}],"name":"setVaultAdapter","outputs":[],"stateMutability":"nonpayable","type":"function"},{"inputs":[],"name":"totalTransactions","outputs":[{"internalType":"uint256","name":"","type":"uint256"}],"stateMutability":"view","type":"function"},{"inputs":[],"name":"totalVolume","outputs":[{"internalType":"uint256","name":"","type":"uint256"}],"stateMutability":"view","type":"function"},{"inputs":[{"internalType":"address","name":"newOwner","type":"address"}],"name":"transferOwnership","outputs":[],"stateMutability":"nonpayable","type":"function"},{"inputs":[{"internalType":"address","name":"","type":"address"},{"internalType":"uint256","name":"","type":"uint256"}],"name":"userSplits","outputs":[{"internalType":"address","name":"recipient","type":"address"},{"internalType":"uint256","name":"basisPoints","type":"uint256"},{"internalType":"bool","name":"isVault","type":"bool"}],"stateMutability":"view","type":"function"},{"inputs":[{"internalType":"address","name":"","type":"address"}],"name":"vaultAdapters","outputs":[{"internalType":"bool","name":"","type":"bool"}],"stateMutability":"view","type":"function"},{"stateMutability":"payable","type":"receive"}],"evm":{"bytecode":{"linkReferences":{},"object":"60808060405234609957331560835760008054336001600160a01b0319821681178355916001600160a01b03909116907f8be0079c531659141344cd1fd0a4f28419497f9722a3daafe3b4186f6b6457e09080a360017f9b779b17422d0df92223018b32b4d1fa46e071723d6817e2486d003becc55f005561138f908161009f8239f35b631e4fbdf760e01b600052600060045260246000fd5b600080fdfe6080806040526004361015610060575b50361561001b57600080fd5b60405162461bcd60e51b815260206004820152601b60248201527f55736520726f7574655061796d656e7420666f722073706c69747300000000006044820152606490fd5b60003560e01c9081634adde6e61461107957508063555feb0914610f2e5780635f81a57c14610f10578063715018a614610eb7578063756513e4146109d057806377bb68f1146109485780638da5cb5b1461091f578063ab3b16751461020a578063b9a60038146101ec578063ca5d6986146101745763f2fde38b146100e6573861000f565b3461016f57602036600319011261016f576100ff6110b4565b610107611330565b6001600160a01b0316801561015957600080546001600160a01b03198116831782556001600160a01b0316907f8be0079c531659141344cd1fd0a4f28419497f9722a3daafe3b4186f6b6457e09080a3005b631e4fbdf760e01b600052600060045260246000fd5b600080fd5b3461016f57604036600319011261016f5761018d6110b4565b6001600160a01b031660009081526001602052604090208054602435919082101561016f576060916101be9161116c565b5060018060a01b038154169060ff600260018301549201541690604051928352602083015215156040820152f35b3461016f57600036600319011261016f576020600354604051908152f35b604036600319011261016f5761021e6110b4565b60243560027f9b779b17422d0df92223018b32b4d1fa46e071723d6817e2486d003becc55f00541461090e5760027f9b779b17422d0df92223018b32b4d1fa46e071723d6817e2486d003becc55f0055336000526001602052604060002080549081156108d85782156108a5576001600160a01b03841680159490929085156107e45784340361079f575b6102b2826111d8565b926102bc836111d8565b966003546000198114610729576001016003556102db8760045461128d565b6004556000600019850185811190825b878110610373578b7f49343d927342553e887f4f418bede788d904dda19262752a88c45153f9e07c778c8c61034a61033b8e604051948594855260208501526080604085015260808401906110ca565b82810360608401523395611107565b0390a260017f9b779b17422d0df92223018b32b4d1fa46e071723d6817e2486d003becc55f0055005b60008361078b5781830361073f5750838b038b811161072957806103b8838f8d6103b2836103a1818f61116c565b50546001600160a01b03169261120a565b5261120a565b5260ff60026103c7848a61116c565b500154161561061c57851561048857600080916103e4848a61116c565b5054604051638340f54960e01b6020820190815233602483015260448201859052606480830185905282526001600160a01b03909216929061042760848261119e565b51925af16104336112f0565b5015610443576001905b016102eb565b60405162461bcd60e51b815260206004820152601b60248201527f5661756c74206e6174697665206465706f736974206661696c656400000000006044820152606490fd5b6104d36020828d610499868c61116c565b505460405163095ea7b360e01b81526001600160a01b03909116600482015260248101929092529092839190829060009082906044820190565b03925af1908115610610576000916105e2575b50156105a657600080918982610542610550610502888e61116c565b5054604051638340f54960e01b602082019081523360248301526001600160a01b0396871660448301526064820197909752941694939182906084820190565b03601f19810183528261119e565b51925af161055c6112f0565b501561056a5760019061043d565b60405162461bcd60e51b815260206004820152601460248201527315985d5b1d0819195c1bdcda5d0819985a5b195960621b6044820152606490fd5b60405162461bcd60e51b815260206004820152601460248201527315985d5b1d08185c1c1c9bdd994819985a5b195960621b6044820152606490fd5b610603915060203d8111610609575b6105fb818361119e565b81019061129a565b8e6104e6565b503d6105f1565b6040513d6000823e3d90fd5b851561069a57600080808093610632868c61116c565b50546001600160a01b03165af16106476112f0565b50156106555760019061043d565b60405162461bcd60e51b815260206004820152601b60248201527f4e61746976652043454c4f207472616e73666572206661696c656400000000006044820152606490fd5b9060206106e6928c6106ac848b61116c565b505460405163a9059cbb60e01b81526001600160a01b03909116600482015260248101929092529093849190829060009082906044820190565b03925af1918215610610576001926107069160009161070b575b506112b2565b61043d565b610723915060203d8111610609576105fb818361119e565b8f610700565b634e487b7160e01b600052601160045260246000fd5b60016107508389979495969761116c565b50015490818d02918d83040361078b575082916103b8838f8d6103b2836103a18e9c9b9a6127106107859a04998a809a61128d565b9d61116c565b634e487b7160e01b81526011600452602490fd5b60405162461bcd60e51b815260206004820152601e60248201527f416d6f756e74206d69736d617463682077697468206d73672e76616c756500006044820152606490fd5b3461084f576040516323b872dd60e01b8152336004820152306024820152604481018690526020816064816000895af180156106105761082b9160009161083057506112b2565b6102a9565b610849915060203d602011610609576105fb818361119e565b88610700565b60405162461bcd60e51b815260206004820152602860248201527f446f206e6f742073656e64206e61746976652043454c4f20666f722045524332604482015267302073706c69747360c01b6064820152608490fd5b60405162461bcd60e51b815260206004820152600b60248201526a16995c9bc8185b5bdd5b9d60aa1b6044820152606490fd5b60405162461bcd60e51b815260206004820152600e60248201526d4e6f2073706c69742072756c657360901b6044820152606490fd5b633ee5aeb560e01b60005260046000fd5b3461016f57600036600319011261016f576000546040516001600160a01b039091168152602090f35b3461016f57604036600319011261016f576109616110b4565b602435908115159081830361016f577f21fb39c4483acea5a0c46564e54a29118ea92ef55ac3ea30289aca6967db5781916109c76020926109a0611330565b60018060a01b031694856000526002845260406000209060ff801983541691151516179055565b604051908152a2005b3461016f57606036600319011261016f5760043567ffffffffffffffff811161016f57610a0190369060040161113b565b60243567ffffffffffffffff811161016f57610a2190369060040161113b565b60443567ffffffffffffffff811161016f57610a4190369060040161113b565b929094610a4f83861461121e565b610a5a84861461121e565b8415610e8357600a8511610e4c576000805b868210610d1357612710915003610cdb5733600052600160205260406000208054906000815581610c9d575b505060005b858110610b83575060405194806060870160608852526080860191906000905b808210610b595750505084810360208601528281526001600160fb1b03831161016f5760409260051b8092602083013701826020820160208684030184870152520192906000905b808210610b3557337f1153a65caadc1a1b7c72682e8bd65e8a90e813115a94050c9ec47a8b7980111f85870386a2005b90919384359081151580920361016f57602081600193829352019501920190610b05565b90919283359060018060a01b03821680920361016f57602081600193829352019401920190610abd565b336000526001602052604060002090610ba5610ba082898661125c565b61126c565b610bb082878761125c565b3590610bc5610bc0848a8d61125c565b611280565b93604051916060830183811067ffffffffffffffff821117610c875760405260018060a01b0316825260208201928352604082019415158552805468010000000000000000811015610c8757610c209160018201815561116c565b919091610c7157600194610c6b93600292878060a01b039051166bffffffffffffffffffffffff60a01b855416178455518684015551151591019060ff801983541691151516179055565b01610a9d565b634e487b7160e01b600052600060045260246000fd5b634e487b7160e01b600052604160045260246000fd5b81600302916003830403610729576000526020600020908101905b81811015610a985780600060039255600060018201556000600282015501610cb8565b60405162461bcd60e51b815260206004820152601060248201526f4d7573742073756d20746f203130302560801b6044820152606490fd5b610d1e82868661125c565b3515610e13576001600160a01b03610d3a610ba0848a8761125c565b1615610dda57610d4e610bc083888b61125c565b610d73575b610d6b600191610d6484888861125c565b359061128d565b910190610a6c565b6001600160a01b03610d89610ba0848a8761125c565b16600052600260205260ff60406000205416610d535760405162461bcd60e51b81526020600482015260136024820152722737ba1030903b30bab63a1030b230b83a32b960691b6044820152606490fd5b60405162461bcd60e51b8152602060048201526011602482015270125b9d985b1a59081c9958da5c1a595b9d607a1b6044820152606490fd5b60405162461bcd60e51b81526020600482015260116024820152705a65726f20626173697320706f696e747360781b6044820152606490fd5b60405162461bcd60e51b815260206004820152600f60248201526e546f6f206d616e792073706c69747360881b6044820152606490fd5b60405162461bcd60e51b815260206004820152600c60248201526b456d7074792073706c69747360a01b6044820152606490fd5b3461016f57600036600319011261016f57610ed0611330565b600080546001600160a01b0319811682556001600160a01b03167f8be0079c531659141344cd1fd0a4f28419497f9722a3daafe3b4186f6b6457e08280a3005b3461016f57600036600319011261016f576020600454604051908152f35b3461016f57602036600319011261016f576001600160a01b03610f4f6110b4565b1660005260016020526040600020805490610f69826111d8565b91610f73816111d8565b610f7c826111c0565b91610f8a604051938461119e565b808352610f96816111c0565b602084019490601f190136863760005b82811061101757610fcd8787876020610fda896040519687966060885260608801906110ca565b9086820384880152611107565b918483036040860152519182815201919060005b818110610ffc575050500390f35b82511515845285945060209384019390920191600101610fee565b806110246001928461116c565b50828060a01b03905416611038828a61120a565b5281611044828561116c565b500154611051828761120a565b5260ff6002611060838661116c565b5001541661106e828861120a565b901515905201610fa6565b3461016f57602036600319011261016f576020906001600160a01b0361109d6110b4565b166000526002825260ff6040600020541615158152f35b600435906001600160a01b038216820361016f57565b906020808351928381520192019060005b8181106110e85750505090565b82516001600160a01b03168452602093840193909201916001016110db565b906020808351928381520192019060005b8181106111255750505090565b8251845260209384019390920191600101611118565b9181601f8401121561016f5782359167ffffffffffffffff831161016f576020808501948460051b01011161016f57565b8054821015611188576000526003602060002091020190600090565b634e487b7160e01b600052603260045260246000fd5b90601f8019910116810190811067ffffffffffffffff821117610c8757604052565b67ffffffffffffffff8111610c875760051b60200190565b906111e2826111c0565b6111ef604051918261119e565b8281528092611200601f19916111c0565b0190602036910137565b80518210156111885760209160051b010190565b1561122557565b60405162461bcd60e51b815260206004820152600f60248201526e098cadccee8d040dad2e6dac2e8c6d608b1b6044820152606490fd5b91908110156111885760051b0190565b356001600160a01b038116810361016f5790565b35801515810361016f5790565b9190820180921161072957565b9081602091031261016f5751801515810361016f5790565b156112b957565b60405162461bcd60e51b815260206004820152600f60248201526e151c985b9cd9995c8819985a5b1959608a1b6044820152606490fd5b3d1561132b573d9067ffffffffffffffff8211610c87576040519161131f601f8201601f19166020018461119e565b82523d6000602084013e565b606090565b6000546001600160a01b0316330361134457565b63118cdaa760e01b6000523360045260246000fdfea2646970667358221220fada9d81662f3534b9837195a6b3fb4900a7e78d2718bbdf64fd5ec5c141870864736f6c634300081a0033","opcodes":"PUSH1 0x80 DUP1 PUSH1 0x40 MSTORE CALLVALUE PUSH1 0x99 JUMPI CALLER ISZERO PUSH1 0x83 JUMPI PUSH1 0x0 DUP1 SLOAD CALLER PUSH1 0x1 PUSH1 0x1 PUSH1 0xA0 SHL SUB NOT DUP3 AND DUP2 OR DUP4 SSTORE SWAP2 PUSH1 0x1 PUSH1 0x1 PUSH1 0xA0 SHL SUB SWAP1 SWAP2 AND SWAP1 PUSH32 0x8BE0079C531659141344CD1FD0A4F28419497F9722A3DAAFE3B4186F6B6457E0 SWAP1 DUP1 LOG3 PUSH1 0x1 PUSH32 0x9B779B17422D0DF92223018B32B4D1FA46E071723D6817E2486D003BECC55F00 SSTORE PUSH2 0x138F SWAP1 DUP2 PUSH2 0x9F DUP3 CODECOPY RETURN JUMPDEST PUSH4 0x1E4FBDF7 PUSH1 0xE0 SHL PUSH1 0x0 MSTORE PUSH1 0x0 PUSH1 0x4 MSTORE PUSH1 0x24 PUSH1 0x0 REVERT JUMPDEST PUSH1 0x0 DUP1 REVERT INVALID PUSH1 0x80 DUP1 PUSH1 0x40 MSTORE PUSH1 0x4 CALLDATASIZE LT ISZERO PUSH2 0x60 JUMPI JUMPDEST POP CALLDATASIZE ISZERO PUSH2 0x1B JUMPI PUSH1 0x0 DUP1 REVERT JUMPDEST PUSH1 0x40 MLOAD PUSH3 0x461BCD PUSH1 0xE5 SHL DUP2 MSTORE PUSH1 0x20 PUSH1 0x4 DUP3 ADD MSTORE PUSH1 0x1B PUSH1 0x24 DUP3 ADD MSTORE PUSH32 0x55736520726F7574655061796D656E7420666F722073706C6974730000000000 PUSH1 0x44 DUP3 ADD MSTORE PUSH1 0x64 SWAP1 REVERT JUMPDEST PUSH1 0x0 CALLDATALOAD PUSH1 0xE0 SHR SWAP1 DUP2 PUSH4 0x4ADDE6E6 EQ PUSH2 0x1079 JUMPI POP DUP1 PUSH4 0x555FEB09 EQ PUSH2 0xF2E JUMPI DUP1 PUSH4 0x5F81A57C EQ PUSH2 0xF10 JUMPI DUP1 PUSH4 0x715018A6 EQ PUSH2 0xEB7 JUMPI DUP1 PUSH4 0x756513E4 EQ PUSH2 0x9D0 JUMPI DUP1 PUSH4 0x77BB68F1 EQ PUSH2 0x948 JUMPI DUP1 PUSH4 0x8DA5CB5B EQ PUSH2 0x91F JUMPI DUP1 PUSH4 0xAB3B1675 EQ PUSH2 0x20A JUMPI DUP1 PUSH4 0xB9A60038 EQ PUSH2 0x1EC JUMPI DUP1 PUSH4 0xCA5D6986 EQ PUSH2 0x174 JUMPI PUSH4 0xF2FDE38B EQ PUSH2 0xE6 JUMPI CODESIZE PUSH2 0xF JUMP JUMPDEST CALLVALUE PUSH2 0x16F JUMPI PUSH1 0x20 CALLDATASIZE PUSH1 0x3 NOT ADD SLT PUSH2 0x16F JUMPI PUSH2 0xFF PUSH2 0x10B4 JUMP JUMPDEST PUSH2 0x107 PUSH2 0x1330 JUMP JUMPDEST PUSH1 0x1 PUSH1 0x1 PUSH1 0xA0 SHL SUB AND DUP1 ISZERO PUSH2 0x159 JUMPI PUSH1 0x0 DUP1 SLOAD PUSH1 0x1 PUSH1 0x1 PUSH1 0xA0 SHL SUB NOT DUP2 AND DUP4 OR DUP3 SSTORE PUSH1 0x1 PUSH1 0x1 PUSH1 0xA0 SHL SUB AND SWAP1 PUSH32 0x8BE0079C531659141344CD1FD0A4F28419497F9722A3DAAFE3B4186F6B6457E0 SWAP1 DUP1 LOG3 STOP JUMPDEST PUSH4 0x1E4FBDF7 PUSH1 0xE0 SHL PUSH1 0x0 MSTORE PUSH1 0x0 PUSH1 0x4 MSTORE PUSH1 0x24 PUSH1 0x0 REVERT JUMPDEST PUSH1 0x0 DUP1 REVERT JUMPDEST CALLVALUE PUSH2 0x16F JUMPI PUSH1 0x40 CALLDATASIZE PUSH1 0x3 NOT ADD SLT PUSH2 0x16F JUMPI PUSH2 0x18D PUSH2 0x10B4 JUMP JUMPDEST PUSH1 0x1 PUSH1 0x1 PUSH1 0xA0 SHL SUB AND PUSH1 0x0 SWAP1 DUP2 MSTORE PUSH1 0x1 PUSH1 0x20 MSTORE PUSH1 0x40 SWAP1 KECCAK256 DUP1 SLOAD PUSH1 0x24 CALLDATALOAD SWAP2 SWAP1 DUP3 LT ISZERO PUSH2 0x16F JUMPI PUSH1 0x60 SWAP2 PUSH2 0x1BE SWAP2 PUSH2 0x116C JUMP JUMPDEST POP PUSH1 0x1 DUP1 PUSH1 0xA0 SHL SUB DUP2 SLOAD AND SWAP1 PUSH1 0xFF PUSH1 0x2 PUSH1 0x1 DUP4 ADD SLOAD SWAP3 ADD SLOAD AND SWAP1 PUSH1 0x40 MLOAD SWAP3 DUP4 MSTORE PUSH1 0x20 DUP4 ADD MSTORE ISZERO ISZERO PUSH1 0x40 DUP3 ADD MSTORE RETURN JUMPDEST CALLVALUE PUSH2 0x16F JUMPI PUSH1 0x0 CALLDATASIZE PUSH1 0x3 NOT ADD SLT PUSH2 0x16F JUMPI PUSH1 0x20 PUSH1 0x3 SLOAD PUSH1 0x40 MLOAD SWAP1 DUP2 MSTORE RETURN JUMPDEST PUSH1 0x40 CALLDATASIZE PUSH1 0x3 NOT ADD SLT PUSH2 0x16F JUMPI PUSH2 0x21E PUSH2 0x10B4 JUMP JUMPDEST PUSH1 0x24 CALLDATALOAD PUSH1 0x2 PUSH32 0x9B779B17422D0DF92223018B32B4D1FA46E071723D6817E2486D003BECC55F00 SLOAD EQ PUSH2 0x90E JUMPI PUSH1 0x2 PUSH32 0x9B779B17422D0DF92223018B32B4D1FA46E071723D6817E2486D003BECC55F00 SSTORE CALLER PUSH1 0x0 MSTORE PUSH1 0x1 PUSH1 0x20 MSTORE PUSH1 0x40 PUSH1 0x0 KECCAK256 DUP1 SLOAD SWAP1 DUP2 ISZERO PUSH2 0x8D8 JUMPI DUP3 ISZERO PUSH2 0x8A5 JUMPI PUSH1 0x1 PUSH1 0x1 PUSH1 0xA0 SHL SUB DUP5 AND DUP1 ISZERO SWAP5 SWAP1 SWAP3 SWAP1 DUP6 ISZERO PUSH2 0x7E4 JUMPI DUP5 CALLVALUE SUB PUSH2 0x79F JUMPI JUMPDEST PUSH2 0x2B2 DUP3 PUSH2 0x11D8 JUMP JUMPDEST SWAP3 PUSH2 0x2BC DUP4 PUSH2 0x11D8 JUMP JUMPDEST SWAP7 PUSH1 0x3 SLOAD PUSH1 0x0 NOT DUP2 EQ PUSH2 0x729 JUMPI PUSH1 0x1 ADD PUSH1 0x3 SSTORE PUSH2 0x2DB DUP8 PUSH1 0x4 SLOAD PUSH2 0x128D JUMP JUMPDEST PUSH1 0x4 SSTORE PUSH1 0x0 PUSH1 0x0 NOT DUP6 ADD DUP6 DUP2 GT SWAP1 DUP3 JUMPDEST DUP8 DUP2 LT PUSH2 0x373 JUMPI DUP12 PUSH32 0x49343D927342553E887F4F418BEDE788D904DDA19262752A88C45153F9E07C77 DUP13 DUP13 PUSH2 0x34A PUSH2 0x33B DUP15 PUSH1 0x40 MLOAD SWAP5 DUP6 SWAP5 DUP6 MSTORE PUSH1 0x20 DUP6 ADD MSTORE PUSH1 0x80 PUSH1 0x40 DUP6 ADD MSTORE PUSH1 0x80 DUP5 ADD SWAP1 PUSH2 0x10CA JUMP JUMPDEST DUP3 DUP2 SUB PUSH1 0x60 DUP5 ADD MSTORE CALLER SWAP6 PUSH2 0x1107 JUMP JUMPDEST SUB SWAP1 LOG2 PUSH1 0x1 PUSH32 0x9B779B17422D0DF92223018B32B4D1FA46E071723D6817E2486D003BECC55F00 SSTORE STOP JUMPDEST PUSH1 0x0 DUP4 PUSH2 0x78B JUMPI DUP2 DUP4 SUB PUSH2 0x73F JUMPI POP DUP4 DUP12 SUB DUP12 DUP2 GT PUSH2 0x729 JUMPI DUP1 PUSH2 0x3B8 DUP4 DUP16 DUP14 PUSH2 0x3B2 DUP4 PUSH2 0x3A1 DUP2 DUP16 PUSH2 0x116C JUMP JUMPDEST POP SLOAD PUSH1 0x1 PUSH1 0x1 PUSH1 0xA0 SHL SUB AND SWAP3 PUSH2 0x120A JUMP JUMPDEST MSTORE PUSH2 0x120A JUMP JUMPDEST MSTORE PUSH1 0xFF PUSH1 0x2 PUSH2 0x3C7 DUP5 DUP11 PUSH2 0x116C JUMP JUMPDEST POP ADD SLOAD AND ISZERO PUSH2 0x61C JUMPI DUP6 ISZERO PUSH2 0x488 JUMPI PUSH1 0x0 DUP1 SWAP2 PUSH2 0x3E4 DUP5 DUP11 PUSH2 0x116C JUMP JUMPDEST POP SLOAD PUSH1 0x40 MLOAD PUSH4 0x8340F549 PUSH1 0xE0 SHL PUSH1 0x20 DUP3 ADD SWAP1 DUP2 MSTORE CALLER PUSH1 0x24 DUP4 ADD MSTORE PUSH1 0x44 DUP3 ADD DUP6 SWAP1 MSTORE PUSH1 0x64 DUP1 DUP4 ADD DUP6 SWAP1 MSTORE DUP3 MSTORE PUSH1 0x1 PUSH1 0x1 PUSH1 0xA0 SHL SUB SWAP1 SWAP3 AND SWAP3 SWAP1 PUSH2 0x427 PUSH1 0x84 DUP3 PUSH2 0x119E JUMP JUMPDEST MLOAD SWAP3 GAS CALL PUSH2 0x433 PUSH2 0x12F0 JUMP JUMPDEST POP ISZERO PUSH2 0x443 JUMPI PUSH1 0x1 SWAP1 JUMPDEST ADD PUSH2 0x2EB JUMP JUMPDEST PUSH1 0x40 MLOAD PUSH3 0x461BCD PUSH1 0xE5 SHL DUP2 MSTORE PUSH1 0x20 PUSH1 0x4 DUP3 ADD MSTORE PUSH1 0x1B PUSH1 0x24 DUP3 ADD MSTORE PUSH32 0x5661756C74206E6174697665206465706F736974206661696C65640000000000 PUSH1 0x44 DUP3 ADD MSTORE PUSH1 0x64 SWAP1 REVERT JUMPDEST PUSH2 0x4D3 PUSH1 0x20 DUP3 DUP14 PUSH2 0x499 DUP7 DUP13 PUSH2 0x116C JUMP JUMPDEST POP SLOAD PUSH1 0x40 MLOAD PUSH4 0x95EA7B3 PUSH1 0xE0 SHL DUP2 MSTORE PUSH1 0x1 PUSH1 0x1 PUSH1 0xA0 SHL SUB SWAP1 SWAP2 AND PUSH1 0x4 DUP3 ADD MSTORE PUSH1 0x24 DUP2 ADD SWAP3 SWAP1 SWAP3 MSTORE SWAP1 SWAP3 DUP4 SWAP2 SWAP1 DUP3 SWAP1 PUSH1 0x0 SWAP1 DUP3 SWAP1 PUSH1 0x44 DUP3 ADD SWAP1 JUMP JUMPDEST SUB SWAP3 GAS CALL SWAP1 DUP2 ISZERO PUSH2 0x610 JUMPI PUSH1 0x0 SWAP2 PUSH2 0x5E2 JUMPI JUMPDEST POP ISZERO PUSH2 0x5A6 JUMPI PUSH1 0x0 DUP1 SWAP2 DUP10 DUP3 PUSH2 0x542 PUSH2 0x550 PUSH2 0x502 DUP9 DUP15 PUSH2 0x116C JUMP JUMPDEST POP SLOAD PUSH1 0x40 MLOAD PUSH4 0x8340F549 PUSH1 0xE0 SHL PUSH1 0x20 DUP3 ADD SWAP1 DUP2 MSTORE CALLER PUSH1 0x24 DUP4 ADD MSTORE PUSH1 0x1 PUSH1 0x1 PUSH1 0xA0 SHL SUB SWAP7 DUP8 AND PUSH1 0x44 DUP4 ADD MSTORE PUSH1 0x64 DUP3 ADD SWAP8 SWAP1 SWAP8 MSTORE SWAP5 AND SWAP5 SWAP4 SWAP2 DUP3 SWAP1 PUSH1 0x84 DUP3 ADD SWAP1 JUMP JUMPDEST SUB PUSH1 0x1F NOT DUP2 ADD DUP4 MSTORE DUP3 PUSH2 0x119E JUMP JUMPDEST MLOAD SWAP3 GAS CALL PUSH2 0x55C PUSH2 0x12F0 JUMP JUMPDEST POP ISZERO PUSH2 0x56A JUMPI PUSH1 0x1 SWAP1 PUSH2 0x43D JUMP JUMPDEST PUSH1 0x40 MLOAD PUSH3 0x461BCD PUSH1 0xE5 SHL DUP2 MSTORE PUSH1 0x20 PUSH1 0x4 DUP3 ADD MSTORE PUSH1 0x14 PUSH1 0x24 DUP3 ADD MSTORE PUSH20 0x15985D5B1D0819195C1BDCDA5D0819985A5B1959 PUSH1 0x62 SHL PUSH1 0x44 DUP3 ADD MSTORE PUSH1 0x64 SWAP1 REVERT JUMPDEST PUSH1 0x40 MLOAD PUSH3 0x461BCD PUSH1 0xE5 SHL DUP2 MSTORE PUSH1 0x20 PUSH1 0x4 DUP3 ADD MSTORE PUSH1 0x14 PUSH1 0x24 DUP3 ADD MSTORE PUSH20 0x15985D5B1D08185C1C1C9BDD994819985A5B1959 PUSH1 0x62 SHL PUSH1 0x44 DUP3 ADD MSTORE PUSH1 0x64 SWAP1 REVERT JUMPDEST PUSH2 0x603 SWAP2 POP PUSH1 0x20 RETURNDATASIZE DUP2 GT PUSH2 0x609 JUMPI JUMPDEST PUSH2 0x5FB DUP2 DUP4 PUSH2 0x119E JUMP JUMPDEST DUP2 ADD SWAP1 PUSH2 0x129A JUMP JUMPDEST DUP15 PUSH2 0x4E6 JUMP JUMPDEST POP RETURNDATASIZE PUSH2 0x5F1 JUMP JUMPDEST PUSH1 0x40 MLOAD RETURNDATASIZE PUSH1 0x0 DUP3 RETURNDATACOPY RETURNDATASIZE SWAP1 REVERT JUMPDEST DUP6 ISZERO PUSH2 0x69A JUMPI PUSH1 0x0 DUP1 DUP1 DUP1 SWAP4 PUSH2 0x632 DUP7 DUP13 PUSH2 0x116C JUMP JUMPDEST POP SLOAD PUSH1 0x1 PUSH1 0x1 PUSH1 0xA0 SHL SUB AND GAS CALL PUSH2 0x647 PUSH2 0x12F0 JUMP JUMPDEST POP ISZERO PUSH2 0x655 JUMPI PUSH1 0x1 SWAP1 PUSH2 0x43D JUMP JUMPDEST PUSH1 0x40 MLOAD PUSH3 0x461BCD PUSH1 0xE5 SHL DUP2 MSTORE PUSH1 0x20 PUSH1 0x4 DUP3 ADD MSTORE PUSH1 0x1B PUSH1 0x24 DUP3 ADD MSTORE PUSH32 0x4E61746976652043454C4F207472616E73666572206661696C65640000000000 PUSH1 0x44 DUP3 ADD MSTORE PUSH1 0x64 SWAP1 REVERT JUMPDEST SWAP1 PUSH1 0x20 PUSH2 0x6E6 SWAP3 DUP13 PUSH2 0x6AC DUP5 DUP12 PUSH2 0x116C JUMP JUMPDEST POP SLOAD PUSH1 0x40 MLOAD PUSH4 0xA9059CBB PUSH1 0xE0 SHL DUP2 MSTORE PUSH1 0x1 PUSH1 0x1 PUSH1 0xA0 SHL SUB SWAP1 SWAP2 AND PUSH1 0x4 DUP3 ADD MSTORE PUSH1 0x24 DUP2 ADD SWAP3 SWAP1 SWAP3 MSTORE SWAP1 SWAP4 DUP5 SWAP2 SWAP1 DUP3 SWAP1 PUSH1 0x0 SWAP1 DUP3 SWAP1 PUSH1 0x44 DUP3 ADD SWAP1 JUMP JUMPDEST SUB SWAP3 GAS CALL SWAP2 DUP3 ISZERO PUSH2 0x610 JUMPI PUSH1 0x1 SWAP3 PUSH2 0x706 SWAP2 PUSH1 0x0 SWAP2 PUSH2 0x70B JUMPI JUMPDEST POP PUSH2 0x12B2 JUMP JUMPDEST PUSH2 0x43D JUMP JUMPDEST PUSH2 0x723 SWAP2 POP PUSH1 0x20 RETURNDATASIZE DUP2 GT PUSH2 0x609 JUMPI PUSH2 0x5FB DUP2 DUP4 PUSH2 0x119E JUMP JUMPDEST DUP16 PUSH2 0x700 JUMP JUMPDEST PUSH4 0x4E487B71 PUSH1 0xE0 SHL PUSH1 0x0 MSTORE PUSH1 0x11 PUSH1 0x4 MSTORE PUSH1 0x24 PUSH1 0x0 REVERT JUMPDEST PUSH1 0x1 PUSH2 0x750 DUP4 DUP10 SWAP8 SWAP5 SWAP6 SWAP7 SWAP8 PUSH2 0x116C JUMP JUMPDEST POP ADD SLOAD SWAP1 DUP2 DUP14 MUL SWAP2 DUP14 DUP4 DIV SUB PUSH2 0x78B JUMPI POP DUP3 SWAP2 PUSH2 0x3B8 DUP4 DUP16 DUP14 PUSH2 0x3B2 DUP4 PUSH2 0x3A1 DUP15 SWAP13 SWAP12 SWAP11 PUSH2 0x2710 PUSH2 0x785 SWAP11 DIV SWAP10 DUP11 DUP1 SWAP11 PUSH2 0x128D JUMP JUMPDEST SWAP14 PUSH2 0x116C JUMP JUMPDEST PUSH4 0x4E487B71 PUSH1 0xE0 SHL DUP2 MSTORE PUSH1 0x11 PUSH1 0x4 MSTORE PUSH1 0x24 SWAP1 REVERT JUMPDEST PUSH1 0x40 MLOAD PUSH3 0x461BCD PUSH1 0xE5 SHL DUP2 MSTORE PUSH1 0x20 PUSH1 0x4 DUP3 ADD MSTORE PUSH1 0x1E PUSH1 0x24 DUP3 ADD MSTORE PUSH32 0x416D6F756E74206D69736D617463682077697468206D73672E76616C75650000 PUSH1 0x44 DUP3 ADD MSTORE PUSH1 0x64 SWAP1 REVERT JUMPDEST CALLVALUE PUSH2 0x84F JUMPI PUSH1 0x40 MLOAD PUSH4 0x23B872DD PUSH1 0xE0 SHL DUP2 MSTORE CALLER PUSH1 0x4 DUP3 ADD MSTORE ADDRESS PUSH1 0x24 DUP3 ADD MSTORE PUSH1 0x44 DUP2 ADD DUP7 SWAP1 MSTORE PUSH1 0x20 DUP2 PUSH1 0x64 DUP2 PUSH1 0x0 DUP10 GAS CALL DUP1 ISZERO PUSH2 0x610 JUMPI PUSH2 0x82B SWAP2 PUSH1 0x0 SWAP2 PUSH2 0x830 JUMPI POP PUSH2 0x12B2 JUMP JUMPDEST PUSH2 0x2A9 JUMP JUMPDEST PUSH2 0x849 SWAP2 POP PUSH1 0x20 RETURNDATASIZE PUSH1 0x20 GT PUSH2 0x609 JUMPI PUSH2 0x5FB DUP2 DUP4 PUSH2 0x119E JUMP JUMPDEST DUP9 PUSH2 0x700 JUMP JUMPDEST PUSH1 0x40 MLOAD PUSH3 0x461BCD PUSH1 0xE5 SHL DUP2 MSTORE PUSH1 0x20 PUSH1 0x4 DUP3 ADD MSTORE PUSH1 0x28 PUSH1 0x24 DUP3 ADD MSTORE PUSH32 0x446F206E6F742073656E64206E61746976652043454C4F20666F722045524332 PUSH1 0x44 DUP3 ADD MSTORE PUSH8 0x302073706C697473 PUSH1 0xC0 SHL PUSH1 0x64 DUP3 ADD MSTORE PUSH1 0x84 SWAP1 REVERT JUMPDEST PUSH1 0x40 MLOAD PUSH3 0x461BCD PUSH1 0xE5 SHL DUP2 MSTORE PUSH1 0x20 PUSH1 0x4 DUP3 ADD MSTORE PUSH1 0xB PUSH1 0x24 DUP3 ADD MSTORE PUSH11 0x16995C9BC8185B5BDD5B9D PUSH1 0xAA SHL PUSH1 0x44 DUP3 ADD MSTORE PUSH1 0x64 SWAP1 REVERT JUMPDEST PUSH1 0x40 MLOAD PUSH3 0x461BCD PUSH1 0xE5 SHL DUP2 MSTORE PUSH1 0x20 PUSH1 0x4 DUP3 ADD MSTORE PUSH1 0xE PUSH1 0x24 DUP3 ADD MSTORE PUSH14 0x4E6F2073706C69742072756C6573 PUSH1 0x90 SHL PUSH1 0x44 DUP3 ADD MSTORE PUSH1 0x64 SWAP1 REVERT JUMPDEST PUSH4 0x3EE5AEB5 PUSH1 0xE0 SHL PUSH1 0x0 MSTORE PUSH1 0x4 PUSH1 0x0 REVERT JUMPDEST CALLVALUE PUSH2 0x16F JUMPI PUSH1 0x0 CALLDATASIZE PUSH1 0x3 NOT ADD SLT PUSH2 0x16F JUMPI PUSH1 0x0 SLOAD PUSH1 0x40 MLOAD PUSH1 0x1 PUSH1 0x1 PUSH1 0xA0 SHL SUB SWAP1 SWAP2 AND DUP2 MSTORE PUSH1 0x20 SWAP1 RETURN JUMPDEST CALLVALUE PUSH2 0x16F JUMPI PUSH1 0x40 CALLDATASIZE PUSH1 0x3 NOT ADD SLT PUSH2 0x16F JUMPI PUSH2 0x961 PUSH2 0x10B4 JUMP JUMPDEST PUSH1 0x24 CALLDATALOAD SWAP1 DUP2 ISZERO ISZERO SWAP1 DUP2 DUP4 SUB PUSH2 0x16F JUMPI PUSH32 0x21FB39C4483ACEA5A0C46564E54A29118EA92EF55AC3EA30289ACA6967DB5781 SWAP2 PUSH2 0x9C7 PUSH1 0x20 SWAP3 PUSH2 0x9A0 PUSH2 0x1330 JUMP JUMPDEST PUSH1 0x1 DUP1 PUSH1 0xA0 SHL SUB AND SWAP5 DUP6 PUSH1 0x0 MSTORE PUSH1 0x2 DUP5 MSTORE PUSH1 0x40 PUSH1 0x0 KECCAK256 SWAP1 PUSH1 0xFF DUP1 NOT DUP4 SLOAD AND SWAP2 ISZERO ISZERO AND OR SWAP1 SSTORE JUMP JUMPDEST PUSH1 0x40 MLOAD SWAP1 DUP2 MSTORE LOG2 STOP JUMPDEST CALLVALUE PUSH2 0x16F JUMPI PUSH1 0x60 CALLDATASIZE PUSH1 0x3 NOT ADD SLT PUSH2 0x16F JUMPI PUSH1 0x4 CALLDATALOAD PUSH8 0xFFFFFFFFFFFFFFFF DUP2 GT PUSH2 0x16F JUMPI PUSH2 0xA01 SWAP1 CALLDATASIZE SWAP1 PUSH1 0x4 ADD PUSH2 0x113B JUMP JUMPDEST PUSH1 0x24 CALLDATALOAD PUSH8 0xFFFFFFFFFFFFFFFF DUP2 GT PUSH2 0x16F JUMPI PUSH2 0xA21 SWAP1 CALLDATASIZE SWAP1 PUSH1 0x4 ADD PUSH2 0x113B JUMP JUMPDEST PUSH1 0x44 CALLDATALOAD PUSH8 0xFFFFFFFFFFFFFFFF DUP2 GT PUSH2 0x16F JUMPI PUSH2 0xA41 SWAP1 CALLDATASIZE SWAP1 PUSH1 0x4 ADD PUSH2 0x113B JUMP JUMPDEST SWAP3 SWAP1 SWAP5 PUSH2 0xA4F DUP4 DUP7 EQ PUSH2 0x121E JUMP JUMPDEST PUSH2 0xA5A DUP5 DUP7 EQ PUSH2 0x121E JUMP JUMPDEST DUP5 ISZERO PUSH2 0xE83 JUMPI PUSH1 0xA DUP6 GT PUSH2 0xE4C JUMPI PUSH1 0x0 DUP1 JUMPDEST DUP7 DUP3 LT PUSH2 0xD13 JUMPI PUSH2 0x2710 SWAP2 POP SUB PUSH2 0xCDB JUMPI CALLER PUSH1 0x0 MSTORE PUSH1 0x1 PUSH1 0x20 MSTORE PUSH1 0x40 PUSH1 0x0 KECCAK256 DUP1 SLOAD SWAP1 PUSH1 0x0 DUP2 SSTORE DUP2 PUSH2 0xC9D JUMPI JUMPDEST POP POP PUSH1 0x0 JUMPDEST DUP6 DUP2 LT PUSH2 0xB83 JUMPI POP PUSH1 0x40 MLOAD SWAP5 DUP1 PUSH1 0x60 DUP8 ADD PUSH1 0x60 DUP9 MSTORE MSTORE PUSH1 0x80 DUP7 ADD SWAP2 SWAP1 PUSH1 0x0 SWAP1 JUMPDEST DUP1 DUP3 LT PUSH2 0xB59 JUMPI POP POP POP DUP5 DUP2 SUB PUSH1 0x20 DUP7 ADD MSTORE DUP3 DUP2 MSTORE PUSH1 0x1 PUSH1 0x1 PUSH1 0xFB SHL SUB DUP4 GT PUSH2 0x16F JUMPI PUSH1 0x40 SWAP3 PUSH1 0x5 SHL DUP1 SWAP3 PUSH1 0x20 DUP4 ADD CALLDATACOPY ADD DUP3 PUSH1 0x20 DUP3 ADD PUSH1 0x20 DUP7 DUP5 SUB ADD DUP5 DUP8 ADD MSTORE MSTORE ADD SWAP3 SWAP1 PUSH1 0x0 SWAP1 JUMPDEST DUP1 DUP3 LT PUSH2 0xB35 JUMPI CALLER PUSH32 0x1153A65CAADC1A1B7C72682E8BD65E8A90E813115A94050C9EC47A8B7980111F DUP6 DUP8 SUB DUP7 LOG2 STOP JUMPDEST SWAP1 SWAP2 SWAP4 DUP5 CALLDATALOAD SWAP1 DUP2 ISZERO ISZERO DUP1 SWAP3 SUB PUSH2 0x16F JUMPI PUSH1 0x20 DUP2 PUSH1 0x1 SWAP4 DUP3 SWAP4 MSTORE ADD SWAP6 ADD SWAP3 ADD SWAP1 PUSH2 0xB05 JUMP JUMPDEST SWAP1 SWAP2 SWAP3 DUP4 CALLDATALOAD SWAP1 PUSH1 0x1 DUP1 PUSH1 0xA0 SHL SUB DUP3 AND DUP1 SWAP3 SUB PUSH2 0x16F JUMPI PUSH1 0x20 DUP2 PUSH1 0x1 SWAP4 DUP3 SWAP4 MSTORE ADD SWAP5 ADD SWAP3 ADD SWAP1 PUSH2 0xABD JUMP JUMPDEST CALLER PUSH1 0x0 MSTORE PUSH1 0x1 PUSH1 0x20 MSTORE PUSH1 0x40 PUSH1 0x0 KECCAK256 SWAP1 PUSH2 0xBA5 PUSH2 0xBA0 DUP3 DUP10 DUP7 PUSH2 0x125C JUMP JUMPDEST PUSH2 0x126C JUMP JUMPDEST PUSH2 0xBB0 DUP3 DUP8 DUP8 PUSH2 0x125C JUMP JUMPDEST CALLDATALOAD SWAP1 PUSH2 0xBC5 PUSH2 0xBC0 DUP5 DUP11 DUP14 PUSH2 0x125C JUMP JUMPDEST PUSH2 0x1280 JUMP JUMPDEST SWAP4 PUSH1 0x40 MLOAD SWAP2 PUSH1 0x60 DUP4 ADD DUP4 DUP2 LT PUSH8 0xFFFFFFFFFFFFFFFF DUP3 GT OR PUSH2 0xC87 JUMPI PUSH1 0x40 MSTORE PUSH1 0x1 DUP1 PUSH1 0xA0 SHL SUB AND DUP3 MSTORE PUSH1 0x20 DUP3 ADD SWAP3 DUP4 MSTORE PUSH1 0x40 DUP3 ADD SWAP5 ISZERO ISZERO DUP6 MSTORE DUP1 SLOAD PUSH9 0x10000000000000000 DUP2 LT ISZERO PUSH2 0xC87 JUMPI PUSH2 0xC20 SWAP2 PUSH1 0x1 DUP3 ADD DUP2 SSTORE PUSH2 0x116C JUMP JUMPDEST SWAP2 SWAP1 SWAP2 PUSH2 0xC71 JUMPI PUSH1 0x1 SWAP5 PUSH2 0xC6B SWAP4 PUSH1 0x2 SWAP3 DUP8 DUP1 PUSH1 0xA0 SHL SUB SWAP1 MLOAD AND PUSH12 0xFFFFFFFFFFFFFFFFFFFFFFFF PUSH1 0xA0 SHL DUP6 SLOAD AND OR DUP5 SSTORE MLOAD DUP7 DUP5 ADD SSTORE MLOAD ISZERO ISZERO SWAP2 ADD SWAP1 PUSH1 0xFF DUP1 NOT DUP4 SLOAD AND SWAP2 ISZERO ISZERO AND OR SWAP1 SSTORE JUMP JUMPDEST ADD PUSH2 0xA9D JUMP JUMPDEST PUSH4 0x4E487B71 PUSH1 0xE0 SHL PUSH1 0x0 MSTORE PUSH1 0x0 PUSH1 0x4 MSTORE PUSH1 0x24 PUSH1 0x0 REVERT JUMPDEST PUSH4 0x4E487B71 PUSH1 0xE0 SHL PUSH1 0x0 MSTORE PUSH1 0x41 PUSH1 0x4 MSTORE PUSH1 0x24 PUSH1 0x0 REVERT JUMPDEST DUP2 PUSH1 0x3 MUL SWAP2 PUSH1 0x3 DUP4 DIV SUB PUSH2 0x729 JUMPI PUSH1 0x0 MSTORE PUSH1 0x20 PUSH1 0x0 KECCAK256 SWAP1 DUP2 ADD SWAP1 JUMPDEST DUP2 DUP2 LT ISZERO PUSH2 0xA98 JUMPI DUP1 PUSH1 0x0 PUSH1 0x3 SWAP3 SSTORE PUSH1 0x0 PUSH1 0x1 DUP3 ADD SSTORE PUSH1 0x0 PUSH1 0x2 DUP3 ADD SSTORE ADD PUSH2 0xCB8 JUMP JUMPDEST PUSH1 0x40 MLOAD PUSH3 0x461BCD PUSH1 0xE5 SHL DUP2 MSTORE PUSH1 0x20 PUSH1 0x4 DUP3 ADD MSTORE PUSH1 0x10 PUSH1 0x24 DUP3 ADD MSTORE PUSH16 0x4D7573742073756D20746F2031303025 PUSH1 0x80 SHL PUSH1 0x44 DUP3 ADD MSTORE PUSH1 0x64 SWAP1 REVERT JUMPDEST PUSH2 0xD1E DUP3 DUP7 DUP7 PUSH2 0x125C JUMP JUMPDEST CALLDATALOAD ISZERO PUSH2 0xE13 JUMPI PUSH1 0x1 PUSH1 0x1 PUSH1 0xA0 SHL SUB PUSH2 0xD3A PUSH2 0xBA0 DUP5 DUP11 DUP8 PUSH2 0x125C JUMP JUMPDEST AND ISZERO PUSH2 0xDDA JUMPI PUSH2 0xD4E PUSH2 0xBC0 DUP4 DUP9 DUP12 PUSH2 0x125C JUMP JUMPDEST PUSH2 0xD73 JUMPI JUMPDEST PUSH2 0xD6B PUSH1 0x1 SWAP2 PUSH2 0xD64 DUP5 DUP9 DUP9 PUSH2 0x125C JUMP JUMPDEST CALLDATALOAD SWAP1 PUSH2 0x128D JUMP JUMPDEST SWAP2 ADD SWAP1 PUSH2 0xA6C JUMP JUMPDEST PUSH1 0x1 PUSH1 0x1 PUSH1 0xA0 SHL SUB PUSH2 0xD89 PUSH2 0xBA0 DUP5 DUP11 DUP8 PUSH2 0x125C JUMP JUMPDEST AND PUSH1 0x0 MSTORE PUSH1 0x2 PUSH1 0x20 MSTORE PUSH1 0xFF PUSH1 0x40 PUSH1 0x0 KECCAK256 SLOAD AND PUSH2 0xD53 JUMPI PUSH1 0x40 MLOAD PUSH3 0x461BCD PUSH1 0xE5 SHL DUP2 MSTORE PUSH1 0x20 PUSH1 0x4 DUP3 ADD MSTORE PUSH1 0x13 PUSH1 0x24 DUP3 ADD MSTORE PUSH19 0x2737BA1030903B30BAB63A1030B230B83A32B9 PUSH1 0x69 SHL PUSH1 0x44 DUP3 ADD MSTORE PUSH1 0x64 SWAP1 REVERT JUMPDEST PUSH1 0x40 MLOAD PUSH3 0x461BCD PUSH1 0xE5 SHL DUP2 MSTORE PUSH1 0x20 PUSH1 0x4 DUP3 ADD MSTORE PUSH1 0x11 PUSH1 0x24 DUP3 ADD MSTORE PUSH17 0x125B9D985B1A59081C9958DA5C1A595B9D PUSH1 0x7A SHL PUSH1 0x44 DUP3 ADD MSTORE PUSH1 0x64 SWAP1 REVERT JUMPDEST PUSH1 0x40 MLOAD PUSH3 0x461BCD PUSH1 0xE5 SHL DUP2 MSTORE PUSH1 0x20 PUSH1 0x4 DUP3 ADD MSTORE PUSH1 0x11 PUSH1 0x24 DUP3 ADD MSTORE PUSH17 0x5A65726F20626173697320706F696E7473 PUSH1 0x78 SHL PUSH1 0x44 DUP3 ADD MSTORE PUSH1 0x64 SWAP1 REVERT JUMPDEST PUSH1 0x40 MLOAD PUSH3 0x461BCD PUSH1 0xE5 SHL DUP2 MSTORE PUSH1 0x20 PUSH1 0x4 DUP3 ADD MSTORE PUSH1 0xF PUSH1 0x24 DUP3 ADD MSTORE PUSH15 0x546F6F206D616E792073706C697473 PUSH1 0x88 SHL PUSH1 0x44 DUP3 ADD MSTORE PUSH1 0x64 SWAP1 REVERT JUMPDEST PUSH1 0x40 MLOAD PUSH3 0x461BCD PUSH1 0xE5 SHL DUP2 MSTORE PUSH1 0x20 PUSH1 0x4 DUP3 ADD MSTORE PUSH1 0xC PUSH1 0x24 DUP3 ADD MSTORE PUSH12 0x456D7074792073706C697473 PUSH1 0xA0 SHL PUSH1 0x44 DUP3 ADD MSTORE PUSH1 0x64 SWAP1 REVERT JUMPDEST CALLVALUE PUSH2 0x16F JUMPI PUSH1 0x0 CALLDATASIZE PUSH1 0x3 NOT ADD SLT PUSH2 0x16F JUMPI PUSH2 0xED0 PUSH2 0x1330 JUMP JUMPDEST PUSH1 0x0 DUP1 SLOAD PUSH1 0x1 PUSH1 0x1 PUSH1 0xA0 SHL SUB NOT DUP2 AND DUP3 SSTORE PUSH1 0x1 PUSH1 0x1 PUSH1 0xA0 SHL SUB AND PUSH32 0x8BE0079C531659141344CD1FD0A4F28419497F9722A3DAAFE3B4186F6B6457E0 DUP3 DUP1 LOG3 STOP JUMPDEST CALLVALUE PUSH2 0x16F JUMPI PUSH1 0x0 CALLDATASIZE PUSH1 0x3 NOT ADD SLT PUSH2 0x16F JUMPI PUSH1 0x20 PUSH1 0x4 SLOAD PUSH1 0x40 MLOAD SWAP1 DUP2 MSTORE RETURN JUMPDEST CALLVALUE PUSH2 0x16F JUMPI PUSH1 0x20 CALLDATASIZE PUSH1 0x3 NOT ADD SLT PUSH2 0x16F JUMPI PUSH1 0x1 PUSH1 0x1 PUSH1 0xA0 SHL SUB PUSH2 0xF4F PUSH2 0x10B4 JUMP JUMPDEST AND PUSH1 0x0 MSTORE PUSH1 0x1 PUSH1 0x20 MSTORE PUSH1 0x40 PUSH1 0x0 KECCAK256 DUP1 SLOAD SWAP1 PUSH2 0xF69 DUP3 PUSH2 0x11D8 JUMP JUMPDEST SWAP2 PUSH2 0xF73 DUP2 PUSH2 0x11D8 JUMP JUMPDEST PUSH2 0xF7C DUP3 PUSH2 0x11C0 JUMP JUMPDEST SWAP2 PUSH2 0xF8A PUSH1 0x40 MLOAD SWAP4 DUP5 PUSH2 0x119E JUMP JUMPDEST DUP1 DUP4 MSTORE PUSH2 0xF96 DUP2 PUSH2 0x11C0 JUMP JUMPDEST PUSH1 0x20 DUP5 ADD SWAP5 SWAP1 PUSH1 0x1F NOT ADD CALLDATASIZE DUP7 CALLDATACOPY PUSH1 0x0 JUMPDEST DUP3 DUP2 LT PUSH2 0x1017 JUMPI PUSH2 0xFCD DUP8 DUP8 DUP8 PUSH1 0x20 PUSH2 0xFDA DUP10 PUSH1 0x40 MLOAD SWAP7 DUP8 SWAP7 PUSH1 0x60 DUP9 MSTORE PUSH1 0x60 DUP9 ADD SWAP1 PUSH2 0x10CA JUMP JUMPDEST SWAP1 DUP7 DUP3 SUB DUP5 DUP9 ADD MSTORE PUSH2 0x1107 JUMP JUMPDEST SWAP2 DUP5 DUP4 SUB PUSH1 0x40 DUP7 ADD MSTORE MLOAD SWAP2 DUP3 DUP2 MSTORE ADD SWAP2 SWAP1 PUSH1 0x0 JUMPDEST DUP2 DUP2 LT PUSH2 0xFFC JUMPI POP POP POP SUB SWAP1 RETURN JUMPDEST DUP3 MLOAD ISZERO ISZERO DUP5 MSTORE DUP6 SWAP5 POP PUSH1 0x20 SWAP4 DUP5 ADD SWAP4 SWAP1 SWAP3 ADD SWAP2 PUSH1 0x1 ADD PUSH2 0xFEE JUMP JUMPDEST DUP1 PUSH2 0x1024 PUSH1 0x1 SWAP3 DUP5 PUSH2 0x116C JUMP JUMPDEST POP DUP3 DUP1 PUSH1 0xA0 SHL SUB SWAP1 SLOAD AND PUSH2 0x1038 DUP3 DUP11 PUSH2 0x120A JUMP JUMPDEST MSTORE DUP2 PUSH2 0x1044 DUP3 DUP6 PUSH2 0x116C JUMP JUMPDEST POP ADD SLOAD PUSH2 0x1051 DUP3 DUP8 PUSH2 0x120A JUMP JUMPDEST MSTORE PUSH1 0xFF PUSH1 0x2 PUSH2 0x1060 DUP4 DUP7 PUSH2 0x116C JUMP JUMPDEST POP ADD SLOAD AND PUSH2 0x106E DUP3 DUP9 PUSH2 0x120A JUMP JUMPDEST SWAP1 ISZERO ISZERO SWAP1 MSTORE ADD PUSH2 0xFA6 JUMP JUMPDEST CALLVALUE PUSH2 0x16F JUMPI PUSH1 0x20 CALLDATASIZE PUSH1 0x3 NOT ADD SLT PUSH2 0x16F JUMPI PUSH1 0x20 SWAP1 PUSH1 0x1 PUSH1 0x1 PUSH1 0xA0 SHL SUB PUSH2 0x109D PUSH2 0x10B4 JUMP JUMPDEST AND PUSH1 0x0 MSTORE PUSH1 0x2 DUP3 MSTORE PUSH1 0xFF PUSH1 0x40 PUSH1 0x0 KECCAK256 SLOAD AND ISZERO ISZERO DUP2 MSTORE RETURN JUMPDEST PUSH1 0x4 CALLDATALOAD SWAP1 PUSH1 0x1 PUSH1 0x1 PUSH1 0xA0 SHL SUB DUP3 AND DUP3 SUB PUSH2 0x16F JUMPI JUMP JUMPDEST SWAP1 PUSH1 0x20 DUP1 DUP4 MLOAD SWAP3 DUP4 DUP2 MSTORE ADD SWAP3 ADD SWAP1 PUSH1 0x0 JUMPDEST DUP2 DUP2 LT PUSH2 0x10E8 JUMPI POP POP POP SWAP1 JUMP JUMPDEST DUP3 MLOAD PUSH1 0x1 PUSH1 0x1 PUSH1 0xA0 SHL SUB AND DUP5 MSTORE PUSH1 0x20 SWAP4 DUP5 ADD SWAP4 SWAP1 SWAP3 ADD SWAP2 PUSH1 0x1 ADD PUSH2 0x10DB JUMP JUMPDEST SWAP1 PUSH1 0x20 DUP1 DUP4 MLOAD SWAP3 DUP4 DUP2 MSTORE ADD SWAP3 ADD SWAP1 PUSH1 0x0 JUMPDEST DUP2 DUP2 LT PUSH2 0x1125 JUMPI POP POP POP SWAP1 JUMP JUMPDEST DUP3 MLOAD DUP5 MSTORE PUSH1 0x20 SWAP4 DUP5 ADD SWAP4 SWAP1 SWAP3 ADD SWAP2 PUSH1 0x1 ADD PUSH2 0x1118 JUMP JUMPDEST SWAP2 DUP2 PUSH1 0x1F DUP5 ADD SLT ISZERO PUSH2 0x16F JUMPI DUP3 CALLDATALOAD SWAP2 PUSH8 0xFFFFFFFFFFFFFFFF DUP4 GT PUSH2 0x16F JUMPI PUSH1 0x20 DUP1 DUP6 ADD SWAP5 DUP5 PUSH1 0x5 SHL ADD ADD GT PUSH2 0x16F JUMPI JUMP JUMPDEST DUP1 SLOAD DUP3 LT ISZERO PUSH2 0x1188 JUMPI PUSH1 0x0 MSTORE PUSH1 0x3 PUSH1 0x20 PUSH1 0x0 KECCAK256 SWAP2 MUL ADD SWAP1 PUSH1 0x0 SWAP1 JUMP JUMPDEST PUSH4 0x4E487B71 PUSH1 0xE0 SHL PUSH1 0x0 MSTORE PUSH1 0x32 PUSH1 0x4 MSTORE PUSH1 0x24 PUSH1 0x0 REVERT JUMPDEST SWAP1 PUSH1 0x1F DUP1 NOT SWAP2 ADD AND DUP2 ADD SWAP1 DUP2 LT PUSH8 0xFFFFFFFFFFFFFFFF DUP3 GT OR PUSH2 0xC87 JUMPI PUSH1 0x40 MSTORE JUMP JUMPDEST PUSH8 0xFFFFFFFFFFFFFFFF DUP2 GT PUSH2 0xC87 JUMPI PUSH1 0x5 SHL PUSH1 0x20 ADD SWAP1 JUMP JUMPDEST SWAP1 PUSH2 0x11E2 DUP3 PUSH2 0x11C0 JUMP JUMPDEST PUSH2 0x11EF PUSH1 0x40 MLOAD SWAP2 DUP3 PUSH2 0x119E JUMP JUMPDEST DUP3 DUP2 MSTORE DUP1 SWAP3 PUSH2 0x1200 PUSH1 0x1F NOT SWAP2 PUSH2 0x11C0 JUMP JUMPDEST ADD SWAP1 PUSH1 0x20 CALLDATASIZE SWAP2 ADD CALLDATACOPY JUMP JUMPDEST DUP1 MLOAD DUP3 LT ISZERO PUSH2 0x1188 JUMPI PUSH1 0x20 SWAP2 PUSH1 0x5 SHL ADD ADD SWAP1 JUMP JUMPDEST ISZERO PUSH2 0x1225 JUMPI JUMP JUMPDEST PUSH1 0x40 MLOAD PUSH3 0x461BCD PUSH1 0xE5 SHL DUP2 MSTORE PUSH1 0x20 PUSH1 0x4 DUP3 ADD MSTORE PUSH1 0xF PUSH1 0x24 DUP3 ADD MSTORE PUSH15 0x98CADCCEE8D040DAD2E6DAC2E8C6D PUSH1 0x8B SHL PUSH1 0x44 DUP3 ADD MSTORE PUSH1 0x64 SWAP1 REVERT JUMPDEST SWAP2 SWAP1 DUP2 LT ISZERO PUSH2 0x1188 JUMPI PUSH1 0x5 SHL ADD SWAP1 JUMP JUMPDEST CALLDATALOAD PUSH1 0x1 PUSH1 0x1 PUSH1 0xA0 SHL SUB DUP2 AND DUP2 SUB PUSH2 0x16F JUMPI SWAP1 JUMP JUMPDEST CALLDATALOAD DUP1 ISZERO ISZERO DUP2 SUB PUSH2 0x16F JUMPI SWAP1 JUMP JUMPDEST SWAP2 SWAP1 DUP3 ADD DUP1 SWAP3 GT PUSH2 0x729 JUMPI JUMP JUMPDEST SWAP1 DUP2 PUSH1 0x20 SWAP2 SUB SLT PUSH2 0x16F JUMPI MLOAD DUP1 ISZERO ISZERO DUP2 SUB PUSH2 0x16F JUMPI SWAP1 JUMP JUMPDEST ISZERO PUSH2 0x12B9 JUMPI JUMP JUMPDEST PUSH1 0x40 MLOAD PUSH3 0x461BCD PUSH1 0xE5 SHL DUP2 MSTORE PUSH1 0x20 PUSH1 0x4 DUP3 ADD MSTORE PUSH1 0xF PUSH1 0x24 DUP3 ADD MSTORE PUSH15 0x151C985B9CD9995C8819985A5B1959 PUSH1 0x8A SHL PUSH1 0x44 DUP3 ADD MSTORE PUSH1 0x64 SWAP1 REVERT JUMPDEST RETURNDATASIZE ISZERO PUSH2 0x132B JUMPI RETURNDATASIZE SWAP1 PUSH8 0xFFFFFFFFFFFFFFFF DUP3 GT PUSH2 0xC87 JUMPI PUSH1 0x40 MLOAD SWAP2 PUSH2 0x131F PUSH1 0x1F DUP3 ADD PUSH1 0x1F NOT AND PUSH1 0x20 ADD DUP5 PUSH2 0x119E JUMP JUMPDEST DUP3 MSTORE RETURNDATASIZE PUSH1 0x0 PUSH1 0x20 DUP5 ADD RETURNDATACOPY JUMP JUMPDEST PUSH1 0x60 SWAP1 JUMP JUMPDEST PUSH1 0x0 SLOAD PUSH1 0x1 PUSH1 0x1 PUSH1 0xA0 SHL SUB AND CALLER SUB PUSH2 0x1344 JUMPI JUMP JUMPDEST PUSH4 0x118CDAA7 PUSH1 0xE0 SHL PUSH1 0x0 MSTORE CALLER PUSH1 0x4 MSTORE PUSH1 0x24 PUSH1 0x0 REVERT INVALID LOG2 PUSH5 0x6970667358 0x22 SLT KECCAK256 STATICCALL 0xDA SWAP14 DUP2 PUSH7 0x2F3534B9837195 0xA6 0xB3 0xFB BLOBHASH STOP 0xA7 0xE7 DUP14 0x27 XOR 0xBB 0xDF PUSH5 0xFD5EC5C141 DUP8 ADDMOD PUSH5 0x736F6C6343 STOP ADDMOD BYTE STOP CALLER "},"methodIdentifiers":{"getSplitRules(address)":"555feb09","owner()":"8da5cb5b","renounceOwnership()":"715018a6","routePayment(address,uint256)":"ab3b1675","setSplitRules(address[],uint256[],bool[])":"756513e4","setVaultAdapter(address,bool)":"77bb68f1","totalTransactions()":"b9a60038","totalVolume()":"5f81a57c","transferOwnership(address)":"f2fde38b","userSplits(address,uint256)":"ca5d6986","vaultAdapters(address)":"4adde6e6"}}}}}