{
  "_format": "hh-sol-artifact-1",
  "contractName": "AutoSplitRouter",
  "sourceName": "contracts/AutoSplitRouter.sol",
  "abi": [
    {
      "inputs": [],
      "stateMutability": "nonpayable",
      "type": "constructor"
    },
    {
      "inputs": [
        {
          "internalType": "address",
          "name": "owner",
          "type": "address"
        }
      ],
      "name": "OwnableInvalidOwner",
      "type": "error"
    },
    {
      "inputs": [
        {
          "internalType": "address",
          "name": "account",
          "type": "address"
        }
      ],
      "name": "OwnableUnauthorizedAccount",
      "type": "error"
    },
    {
      "inputs": [],
      "name": "ReentrancyGuardReentrantCall",
      "type": "error"
    },
    {
      "anonymous": false,
      "inputs": [
        {
          "indexed": true,
          "internalType": "address",
          "name": "previousOwner",
          "type": "address"
        },
        {
          "indexed": true,
          "internalType": "address",
          "name": "newOwner",
          "type": "address"
        }
      ],
      "name": "OwnershipTransferred",
      "type": "event"
    },
    {
      "anonymous": false,
      "inputs": [
        {
          "indexed": true,
          "internalType": "address",
          "name": "sender",
          "type": "address"
        },
        {
          "indexed": false,
          "internalType": "address",
          "name": "token",
          "type": "address"
        },
        {
          "indexed": false,
          "internalType": "uint256",
          "name": "amount",
          "type": "uint256"
        },
        {
          "indexed": false,
          "internalType": "address[]",
          "name": "recipients",
          "type": "address[]"
        },
        {
          "indexed": false,
          "internalType": "uint256[]",
          "name": "amounts",
          "type": "uint256[]"
        }
      ],
      "name": "PaymentRouted",
      "type": "event"
    },
    {
      "anonymous": false,
      "inputs": [
        {
          "indexed": true,
          "internalType": "address",
          "name": "user",
          "type": "address"
        },
        {
          "indexed": false,
          "internalType": "address[]",
          "name": "recipients",
          "type": "address[]"
        },
        {
          "indexed": false,
          "internalType": "uint256[]",
          "name": "basisPoints",
          "type": "uint256[]"
        },
        {
          "indexed": false,
          "internalType": "bool[]",
          "name": "isVault",
          "type": "bool[]"
        }
      ],
      "name": "SplitRuleUpdated",
      "type": "event"
    },
    {
      "anonymous": false,
      "inputs": [
        {
          "indexed": true,
          "internalType": "address",
          "name": "vault",
          "type": "address"
        },
        {
          "indexed": false,
          "internalType": "bool",
          "name": "enabled",
          "type": "bool"
        }
      ],
      "name": "VaultAdapterUpdated",
      "type": "event"
    },
    {
      "inputs": [
        {
          "internalType": "address",
          "name": "user",
          "type": "address"
        }
      ],
      "name": "getSplitRules",
      "outputs": [
        {
          "internalType": "address[]",
          "name": "recipients",
          "type": "address[]"
        },
        {
          "internalType": "uint256[]",
          "name": "basisPoints",
          "type": "uint256[]"
        },
        {
          "internalType": "bool[]",
          "name": "isVault",
          "type": "bool[]"
        }
      ],
      "stateMutability": "view",
      "type": "function"
    },
    {
      "inputs": [],
      "name": "owner",
      "outputs": [
        {
          "internalType": "address",
          "name": "",
          "type": "address"
        }
      ],
      "stateMutability": "view",
      "type": "function"
    },
    {
      "inputs": [],
      "name": "renounceOwnership",
      "outputs": [],
      "stateMutability": "nonpayable",
      "type": "function"
    },
    {
      "inputs": [
        {
          "internalType": "address",
          "name": "token",
          "type": "address"
        },
        {
          "internalType": "uint256",
          "name": "amount",
          "type": "uint256"
        }
      ],
      "name": "routePayment",
      "outputs": [],
      "stateMutability": "nonpayable",
      "type": "function"
    },
    {
      "inputs": [
        {
          "internalType": "address[]",
          "name": "recipients",
          "type": "address[]"
        },
        {
          "internalType": "uint256[]",
          "name": "basisPoints",
          "type": "uint256[]"
        },
        {
          "internalType": "bool[]",
          "name": "isVault",
          "type": "bool[]"
        }
      ],
      "name": "setSplitRules",
      "outputs": [],
      "stateMutability": "nonpayable",
      "type": "function"
    },
    {
      "inputs": [
        {
          "internalType": "address",
          "name": "vault",
          "type": "address"
        },
        {
          "internalType": "bool",
          "name": "enabled",
          "type": "bool"
        }
      ],
      "name": "setVaultAdapter",
      "outputs": [],
      "stateMutability": "nonpayable",
      "type": "function"
    },
    {
      "inputs": [],
      "name": "totalTransactions",
      "outputs": [
        {
          "internalType": "uint256",
          "name": "",
          "type": "uint256"
        }
      ],
      "stateMutability": "view",
      "type": "function"
    },
    {
      "inputs": [],
      "name": "totalVolume",
      "outputs": [
        {
          "internalType": "uint256",
          "name": "",
          "type": "uint256"
        }
      ],
      "stateMutability": "view",
      "type": "function"
    },
    {
      "inputs": [
        {
          "internalType": "address",
          "name": "newOwner",
          "type": "address"
        }
      ],
      "name": "transferOwnership",
      "outputs": [],
      "stateMutability": "nonpayable",
      "type": "function"
    },
    {
      "inputs": [
        {
          "internalType": "address",
          "name": "",
          "type": "address"
        },
        {
          "internalType": "uint256",
          "name": "",
          "type": "uint256"
        }
      ],
      "name": "userSplits",
      "outputs": [
        {
          "internalType": "address",
          "name": "recipient",
          "type": "address"
        },
        {
          "internalType": "uint256",
          "name": "basisPoints",
          "type": "uint256"
        },
        {
          "internalType": "bool",
          "name": "isVault",
          "type": "bool"
        }
      ],
      "stateMutability": "view",
      "type": "function"
    },
    {
      "inputs": [
        {
          "internalType": "address",
          "name": "",
          "type": "address"
        }
      ],
      "name": "vaultAdapters",
      "outputs": [
        {
          "internalType": "bool",
          "name": "",
          "type": "bool"
        }
      ],
      "stateMutability": "view",
      "type": "function"
    },
    {
      "stateMutability": "payable",
      "type": "receive"
    }
  ],
  "bytecode": "0x60808060405234609957331560835760008054336001600160a01b0319821681178355916001600160a01b03909116907f8be0079c531659141344cd1fd0a4f28419497f9722a3daafe3b4186f6b6457e09080a360017f9b779b17422d0df92223018b32b4d1fa46e071723d6817e2486d003becc55f0055611165908161009f8239f35b631e4fbdf760e01b600052600060045260246000fd5b600080fdfe6080806040526004361015610060575b50361561001b57600080fd5b60405162461bcd60e51b815260206004820152601b60248201527f55736520455243323020746f6b656e7320666f722073706c69747300000000006044820152606490fd5b60003560e01c9081634adde6e614610e8f57508063555feb0914610d445780635f81a57c14610d26578063715018a614610ccd578063756513e4146107fc57806377bb68f1146107745780638da5cb5b1461074b578063ab3b16751461020a578063b9a60038146101ec578063ca5d6986146101745763f2fde38b146100e6573861000f565b3461016f57602036600319011261016f576100ff610eca565b610107611106565b6001600160a01b0316801561015957600080546001600160a01b03198116831782556001600160a01b0316907f8be0079c531659141344cd1fd0a4f28419497f9722a3daafe3b4186f6b6457e09080a3005b631e4fbdf760e01b600052600060045260246000fd5b600080fd5b3461016f57604036600319011261016f5761018d610eca565b6001600160a01b031660009081526001602052604090208054602435919082101561016f576060916101be91610f82565b5060018060a01b038154169060ff600260018301549201541690604051928352602083015215156040820152f35b3461016f57600036600319011261016f576020600354604051908152f35b3461016f57604036600319011261016f57610223610eca565b60243560027f9b779b17422d0df92223018b32b4d1fa46e071723d6817e2486d003becc55f00541461073a5760027f9b779b17422d0df92223018b32b4d1fa46e071723d6817e2486d003becc55f005533600052600160205260406000209081549283156107045781156106d1576040516323b872dd60e01b8152336004820152306024820152604481018390526001600160a01b0391909116906020816064816000865af180156105c1576102e1916000916106b2575b506110c8565b6102ea84610fee565b6102f385610fee565b93600354600019811461065657600101600355610312846004546110a3565b6004556000600019870187811190825b8981106103aa57887f49343d927342553e887f4f418bede788d904dda19262752a88c45153f9e07c7789896103816103728b60405194859485526020850152608060408501526080840190610ee0565b82810360608401523395610f1d565b0390a260017f9b779b17422d0df92223018b32b4d1fa46e071723d6817e2486d003becc55f0055005b60008361069e5781830361066c5750838803888111610656575b6103ce8287610f82565b50546001600160a01b03166103e38389611020565b52806103ef838c611020565b5260ff60026103fe8489610f82565b50015416156105cd5761044a602082610417858a610f82565b505460405163095ea7b360e01b81526001600160a01b039091166004820152602481019190915291829081906044820190565b038160008d5af19081156105c157600091610593575b501561055757600080916104748489610f82565b505460405163b6b55f2560e01b602082019081523360248301526044808301949094529281526001600160a01b03909116919083906104b4606482610fb4565b51925af13d15610552573d67ffffffffffffffff811161053c57604051906104e6601f8201601f191660200183610fb4565b8152600060203d92013e5b15610500576001905b01610322565b60405162461bcd60e51b815260206004820152601460248201527315985d5b1d0819195c1bdcda5d0819985a5b195960621b6044820152606490fd5b634e487b7160e01b600052604160045260246000fd5b6104f1565b60405162461bcd60e51b815260206004820152601460248201527315985d5b1d08185c1c1c9bdd994819985a5b195960621b6044820152606490fd5b6105b4915060203d81116105ba575b6105ac8183610fb4565b8101906110b0565b8c610460565b503d6105a2565b6040513d6000823e3d90fd5b906020610611926105de8389610f82565b505460405163a9059cbb60e01b81526001600160a01b039091166004820152602481019190915292839081906044820190565b038160008c5af19182156105c1576001926106339160009161063857506110c8565b6104fa565b610650915060203d81116105ba576105ac8183610fb4565b8d6102db565b634e487b7160e01b600052601160045260246000fd5b60016106788388610f82565b50015490818a02918a83040361069e5750612710610698910480956110a3565b936103c4565b634e487b7160e01b81526011600452602490fd5b6106cb915060203d6020116105ba576105ac8183610fb4565b866102db565b60405162461bcd60e51b815260206004820152600b60248201526a16995c9bc8185b5bdd5b9d60aa1b6044820152606490fd5b60405162461bcd60e51b815260206004820152600e60248201526d4e6f2073706c69742072756c657360901b6044820152606490fd5b633ee5aeb560e01b60005260046000fd5b3461016f57600036600319011261016f576000546040516001600160a01b039091168152602090f35b3461016f57604036600319011261016f5761078d610eca565b602435908115159081830361016f577f21fb39c4483acea5a0c46564e54a29118ea92ef55ac3ea30289aca6967db5781916107f36020926107cc611106565b60018060a01b031694856000526002845260406000209060ff801983541691151516179055565b604051908152a2005b3461016f57606036600319011261016f5760043567ffffffffffffffff811161016f5761082d903690600401610f51565b60243567ffffffffffffffff811161016f5761084d903690600401610f51565b60443567ffffffffffffffff811161016f5761086d903690600401610f51565b92909461087b838614611034565b610886848614611034565b8415610c9957600a8511610c62576000805b868210610b2957612710915003610af15733600052600160205260406000208054906000815581610ab3575b505060005b8581106109af575060405194806060870160608852526080860191906000905b8082106109855750505084810360208601528281526001600160fb1b03831161016f5760409260051b8092602083013701826020820160208684030184870152520192906000905b80821061096157337f1153a65caadc1a1b7c72682e8bd65e8a90e813115a94050c9ec47a8b7980111f85870386a2005b90919384359081151580920361016f57602081600193829352019501920190610931565b90919283359060018060a01b03821680920361016f576020816001938293520194019201906108e9565b3360005260016020526040600020906109d16109cc828986611072565b611082565b6109dc828787611072565b35906109f16109ec848a8d611072565b611096565b93604051916060830183811067ffffffffffffffff82111761053c5760405260018060a01b031682526020820192835260408201941515855280546801000000000000000081101561053c57610a4c91600182018155610f82565b919091610a9d57600194610a9793600292878060a01b039051166bffffffffffffffffffffffff60a01b855416178455518684015551151591019060ff801983541691151516179055565b016108c9565b634e487b7160e01b600052600060045260246000fd5b81600302916003830403610656576000526020600020908101905b818110156108c45780600060039255600060018201556000600282015501610ace565b60405162461bcd60e51b815260206004820152601060248201526f4d7573742073756d20746f203130302560801b6044820152606490fd5b610b34828686611072565b3515610c29576001600160a01b03610b506109cc848a87611072565b1615610bf057610b646109ec83888b611072565b610b89575b610b81600191610b7a848888611072565b35906110a3565b910190610898565b6001600160a01b03610b9f6109cc848a87611072565b16600052600260205260ff60406000205416610b695760405162461bcd60e51b81526020600482015260136024820152722737ba1030903b30bab63a1030b230b83a32b960691b6044820152606490fd5b60405162461bcd60e51b8152602060048201526011602482015270125b9d985b1a59081c9958da5c1a595b9d607a1b6044820152606490fd5b60405162461bcd60e51b81526020600482015260116024820152705a65726f20626173697320706f696e747360781b6044820152606490fd5b60405162461bcd60e51b815260206004820152600f60248201526e546f6f206d616e792073706c69747360881b6044820152606490fd5b60405162461bcd60e51b815260206004820152600c60248201526b456d7074792073706c69747360a01b6044820152606490fd5b3461016f57600036600319011261016f57610ce6611106565b600080546001600160a01b0319811682556001600160a01b03167f8be0079c531659141344cd1fd0a4f28419497f9722a3daafe3b4186f6b6457e08280a3005b3461016f57600036600319011261016f576020600454604051908152f35b3461016f57602036600319011261016f576001600160a01b03610d65610eca565b1660005260016020526040600020805490610d7f82610fee565b91610d8981610fee565b610d9282610fd6565b91610da06040519384610fb4565b808352610dac81610fd6565b602084019490601f190136863760005b828110610e2d57610de38787876020610df089604051968796606088526060880190610ee0565b9086820384880152610f1d565b918483036040860152519182815201919060005b818110610e12575050500390f35b82511515845285945060209384019390920191600101610e04565b80610e3a60019284610f82565b50828060a01b03905416610e4e828a611020565b5281610e5a8285610f82565b500154610e678287611020565b5260ff6002610e768386610f82565b50015416610e848288611020565b901515905201610dbc565b3461016f57602036600319011261016f576020906001600160a01b03610eb3610eca565b166000526002825260ff6040600020541615158152f35b600435906001600160a01b038216820361016f57565b906020808351928381520192019060005b818110610efe5750505090565b82516001600160a01b0316845260209384019390920191600101610ef1565b906020808351928381520192019060005b818110610f3b5750505090565b8251845260209384019390920191600101610f2e565b9181601f8401121561016f5782359167ffffffffffffffff831161016f576020808501948460051b01011161016f57565b8054821015610f9e576000526003602060002091020190600090565b634e487b7160e01b600052603260045260246000fd5b90601f8019910116810190811067ffffffffffffffff82111761053c57604052565b67ffffffffffffffff811161053c5760051b60200190565b90610ff882610fd6565b6110056040519182610fb4565b8281528092611016601f1991610fd6565b0190602036910137565b8051821015610f9e5760209160051b010190565b1561103b57565b60405162461bcd60e51b815260206004820152600f60248201526e098cadccee8d040dad2e6dac2e8c6d608b1b6044820152606490fd5b9190811015610f9e5760051b0190565b356001600160a01b038116810361016f5790565b35801515810361016f5790565b9190820180921161065657565b9081602091031261016f5751801515810361016f5790565b156110cf57565b60405162461bcd60e51b815260206004820152600f60248201526e151c985b9cd9995c8819985a5b1959608a1b6044820152606490fd5b6000546001600160a01b0316330361111a57565b63118cdaa760e01b6000523360045260246000fdfea26469706673582212207a213f07873d12834f2ebd4b1bb72061654d3e9daa66471aa66176b0c9b86a3164736f6c634300081a0033",
  "linkReferences": {},
  "deployedLinkReferences": {}
}