{
  "_format": "hh-sol-artifact-1",
  "contractName": "VaultAdapter",
  "sourceName": "contracts/VaultAdapter.sol",
  "abi": [
    {
      "inputs": [
        {
          "internalType": "address",
          "name": "_token",
          "type": "address"
        },
        {
          "internalType": "string",
          "name": "_name",
          "type": "string"
        }
      ],
      "stateMutability": "nonpayable",
      "type": "constructor"
    },
    {
      "inputs": [
        {
          "internalType": "address",
          "name": "owner",
          "type": "address"
        }
      ],
      "name": "OwnableInvalidOwner",
      "type": "error"
    },
    {
      "inputs": [
        {
          "internalType": "address",
          "name": "account",
          "type": "address"
        }
      ],
      "name": "OwnableUnauthorizedAccount",
      "type": "error"
    },
    {
      "anonymous": false,
      "inputs": [
        {
          "indexed": true,
          "internalType": "address",
          "name": "user",
          "type": "address"
        },
        {
          "indexed": false,
          "internalType": "uint256",
          "name": "amount",
          "type": "uint256"
        },
        {
          "indexed": false,
          "internalType": "uint256",
          "name": "shares",
          "type": "uint256"
        }
      ],
      "name": "Deposited",
      "type": "event"
    },
    {
      "anonymous": false,
      "inputs": [
        {
          "indexed": true,
          "internalType": "address",
          "name": "previousOwner",
          "type": "address"
        },
        {
          "indexed": true,
          "internalType": "address",
          "name": "newOwner",
          "type": "address"
        }
      ],
      "name": "OwnershipTransferred",
      "type": "event"
    },
    {
      "anonymous": false,
      "inputs": [
        {
          "indexed": true,
          "internalType": "address",
          "name": "user",
          "type": "address"
        },
        {
          "indexed": false,
          "internalType": "uint256",
          "name": "amount",
          "type": "uint256"
        },
        {
          "indexed": false,
          "internalType": "uint256",
          "name": "shares",
          "type": "uint256"
        }
      ],
      "name": "Withdrawn",
      "type": "event"
    },
    {
      "inputs": [
        {
          "internalType": "address",
          "name": "user",
          "type": "address"
        }
      ],
      "name": "balanceOf",
      "outputs": [
        {
          "internalType": "uint256",
          "name": "",
          "type": "uint256"
        }
      ],
      "stateMutability": "view",
      "type": "function"
    },
    {
      "inputs": [
        {
          "internalType": "address",
          "name": "",
          "type": "address"
        }
      ],
      "name": "balances",
      "outputs": [
        {
          "internalType": "uint256",
          "name": "",
          "type": "uint256"
        }
      ],
      "stateMutability": "view",
      "type": "function"
    },
    {
      "inputs": [
        {
          "internalType": "address",
          "name": "user",
          "type": "address"
        },
        {
          "internalType": "uint256",
          "name": "amount",
          "type": "uint256"
        }
      ],
      "name": "deposit",
      "outputs": [
        {
          "internalType": "uint256",
          "name": "shares",
          "type": "uint256"
        }
      ],
      "stateMutability": "nonpayable",
      "type": "function"
    },
    {
      "inputs": [],
      "name": "emergencyWithdraw",
      "outputs": [],
      "stateMutability": "nonpayable",
      "type": "function"
    },
    {
      "inputs": [],
      "name": "name",
      "outputs": [
        {
          "internalType": "string",
          "name": "",
          "type": "string"
        }
      ],
      "stateMutability": "view",
      "type": "function"
    },
    {
      "inputs": [],
      "name": "owner",
      "outputs": [
        {
          "internalType": "address",
          "name": "",
          "type": "address"
        }
      ],
      "stateMutability": "view",
      "type": "function"
    },
    {
      "inputs": [],
      "name": "renounceOwnership",
      "outputs": [],
      "stateMutability": "nonpayable",
      "type": "function"
    },
    {
      "inputs": [],
      "name": "token",
      "outputs": [
        {
          "internalType": "contract IERC20",
          "name": "",
          "type": "address"
        }
      ],
      "stateMutability": "view",
      "type": "function"
    },
    {
      "inputs": [],
      "name": "totalDeposits",
      "outputs": [
        {
          "internalType": "uint256",
          "name": "",
          "type": "uint256"
        }
      ],
      "stateMutability": "view",
      "type": "function"
    },
    {
      "inputs": [
        {
          "internalType": "address",
          "name": "newOwner",
          "type": "address"
        }
      ],
      "name": "transferOwnership",
      "outputs": [],
      "stateMutability": "nonpayable",
      "type": "function"
    },
    {
      "inputs": [
        {
          "internalType": "uint256",
          "name": "shares",
          "type": "uint256"
        }
      ],
      "name": "withdraw",
      "outputs": [
        {
          "internalType": "uint256",
          "name": "amount",
          "type": "uint256"
        }
      ],
      "stateMutability": "nonpayable",
      "type": "function"
    }
  ],
  "bytecode": "0x6080604052346102ac57610b3480380380610019816102b1565b9283398101906040818303126102ac5780516001600160a01b03811691908290036102ac576020810151906001600160401b0382116102ac570182601f820112156102ac578051906001600160401b03821161026b57610082601f8301601f19166020016102b1565b93828552602083830101116102ac5760005b82811061029757505060206000918401015233156102815760008054336001600160a01b0319821681178355916001600160a01b03909116907f8be0079c531659141344cd1fd0a4f28419497f9722a3daafe3b4186f6b6457e09080a3600180546001600160a01b03191691909117905580516001600160401b03811161026b57600254600181811c91168015610261575b602082101461024b57601f81116101e6575b50602091601f821160011461018257918192600092610177575b50508160011b916000199060031b1c1916176002555b60405161085d90816102d78239f35b015190503880610152565b601f198216926002600052806000209160005b8581106101ce575083600195106101b5575b505050811b01600255610168565b015160001960f88460031b161c191690553880806101a7565b91926020600181928685015181550194019201610195565b60026000527f405787fa12a823e0f2b7631cc41b3ba8828b3321ca811111fa75cd3aa3bb5ace601f830160051c81019160208410610241575b601f0160051c01905b8181106102355750610138565b60008155600101610228565b909150819061021f565b634e487b7160e01b600052602260045260246000fd5b90607f1690610126565b634e487b7160e01b600052604160045260246000fd5b631e4fbdf760e01b600052600060045260246000fd5b80602080928401015182828801015201610094565b600080fd5b6040519190601f01601f191682016001600160401b0381118382101761026b5760405256fe608080604052600436101561001357600080fd5b60003560e01c90816306fdde03146105eb5750806327e235e3146103095780632e1a7d4d1461047757806347e7ef241461034357806370a0823114610309578063715018a6146102b05780637d882097146102925780638da5cb5b14610269578063db2e21bc1461014f578063f2fde38b146100c65763fc0c546a1461009857600080fd5b346100c15760003660031901126100c1576001546040516001600160a01b039091168152602090f35b600080fd5b346100c15760203660031901126100c1576100df610762565b6100e76107fe565b6001600160a01b0316801561013957600080546001600160a01b03198116831782556001600160a01b0316907f8be0079c531659141344cd1fd0a4f28419497f9722a3daafe3b4186f6b6457e09080a3005b631e4fbdf760e01b600052600060045260246000fd5b346100c15760003660031901126100c1576101686107fe565b6001546040516370a0823160e01b81523060048201526001600160a01b0390911690602081602481855afa90811561022957600091610235575b506000805460405163a9059cbb60e01b81526001600160a01b03909116600482015260248101929092529091602091839190829081604481015b03925af18015610229576101f8916000916101fa575b506107b3565b005b61021c915060203d602011610222575b610214818361072a565b81019061079b565b826101f2565b503d61020a565b6040513d6000823e3d90fd5b90506020813d602011610261575b816102506020938361072a565b810103126100c157516101dc6101a2565b3d9150610243565b346100c15760003660031901126100c1576000546040516001600160a01b039091168152602090f35b346100c15760003660031901126100c1576020600454604051908152f35b346100c15760003660031901126100c1576102c96107fe565b600080546001600160a01b0319811682556001600160a01b03167f8be0079c531659141344cd1fd0a4f28419497f9722a3daafe3b4186f6b6457e08280a3005b346100c15760203660031901126100c1576001600160a01b0361032a610762565b1660005260036020526020604060002054604051908152f35b346100c15760403660031901126100c15761035c610762565b6024358015610444576001546040516323b872dd60e01b8152336004820152306024820152604481018390529290602090849060649082906000906001600160a01b03165af1928315610229576020936103bd9160009161042757506107b3565b6001600160a01b03166000818152600384526040902080546103e09084906107f1565b90556103ee826004546107f1565b6004557f73a19dd210f1a7f902193214c0ee91dd35ee5b4d920cba8d519eca65a7b488ca604080518481528486820152a2604051908152f35b61043e9150853d871161022257610214818361072a565b856101f2565b60405162461bcd60e51b815260206004820152600b60248201526a16995c9bc8185b5bdd5b9d60aa1b6044820152606490fd5b346100c15760203660031901126100c15760043580156105b857336000526003602052806040600020541061057d5733600052600360205260406000206104bf828254610778565b90556104cd81600454610778565b600490815560015460405163a9059cbb60e01b8152339281019290925260248201839052909190602090839060449082906000906001600160a01b03165af1918215610229576020926105279160009161056057506107b3565b60405181815281838201527f92ccf450a286a957af52509bc1c9939d1a6a481783e142e41e2499f0bb66ebc660403392a2604051908152f35b6105779150843d861161022257610214818361072a565b846101f2565b60405162461bcd60e51b8152602060048201526013602482015272496e73756666696369656e742073686172657360681b6044820152606490fd5b60405162461bcd60e51b815260206004820152600b60248201526a5a65726f2073686172657360a81b6044820152606490fd5b346100c15760003660031901126100c1576000600254908160011c91600181168015610720575b60208410811461070c5783855284929181156106ed575060011461068c575b61063d9250038261072a565b60405190602082528181519182602083015260005b8381106106745750508160006040809484010152601f80199101168101030190f35b60208282018101516040878401015285935001610652565b509060026000527f405787fa12a823e0f2b7631cc41b3ba8828b3321ca811111fa75cd3aa3bb5ace906000915b8183106106d157505090602061063d92820101610631565b60209193508060019154838588010152019101909183926106b9565b6020925061063d94915060ff191682840152151560051b820101610631565b634e487b7160e01b83526022600452602483fd5b92607f1692610612565b90601f8019910116810190811067ffffffffffffffff82111761074c57604052565b634e487b7160e01b600052604160045260246000fd5b600435906001600160a01b03821682036100c157565b9190820391821161078557565b634e487b7160e01b600052601160045260246000fd5b908160209103126100c1575180151581036100c15790565b156107ba57565b60405162461bcd60e51b815260206004820152600f60248201526e151c985b9cd9995c8819985a5b1959608a1b6044820152606490fd5b9190820180921161078557565b6000546001600160a01b0316330361081257565b63118cdaa760e01b6000523360045260246000fdfea2646970667358221220df4c01a013e3543e509ba74b56670a46283190d6b99ad527a3254049e466e4cb64736f6c634300081a0033",
  "linkReferences": {},
  "deployedLinkReferences": {}
}